:020000040000fa
:080000000002040000000000f2
:020000040000fa
:0400080012040000de
:020000040000fa
:04000c0012040000da
:020000040000fa
:0400100012040000d6
:020000040000fa
:0400140012040000d2
:020000040000fa
:0400180012040000ce
:020000040000fa
:04001c0012040000ca
:020000040000fa
:0400200012040000c6
:020000040000fa
:0400240012040000c2
:020000040000fa
:0400280012040000be
:020000040000fa
:04002c0012040000ba
:020000040000fa
:0400300012040000b6
:020000040000fa
:0400340012040000b2
:020000040000fa
:0400380012040000ae
:020000040000fa
:04003c0012040000aa
:020000040000fa
:0400400012040000a6
:020000040000fa
:0400440012040000a2
:020000040000fa
:04004800120400009e
:020000040000fa
:04004c00120400009a
:020000040000fa
:040050001204000096
:020000040000fa
:040054005a0300004b
:020000040000fa
:04005800120400008e
:020000040000fa
:04005c00120400008a
:020000040000fa
:040060001204000086
:020000040000fa
:040064001204000082
:020000040000fa
:04006800120400007e
:020000040000fa
:04006c00120400007a
:020000040000fa
:040070001204000076
:020000040000fa
:040074001204000072
:020000040000fa
:04007800120400006e
:020000040000fa
:04007c00120400006a
:020000040000fa
:040080001204000066
:020000040000fa
:040084001204000062
:020000040000fa
:04008800120400005e
:020000040000fa
:04008c00120400005a
:020000040000fa
:040090001204000056
:020000040000fa
:040094001204000052
:020000040000fa
:04009800120400004e
:020000040000fa
:04009c00120400004a
:020000040000fa
:0400a0001204000046
:020000040000fa
:0400a4001204000042
:020000040000fa
:0400a800120400003e
:020000040000fa
:0400ac00120400003a
:020000040000fa
:0400b0001204000036
:020000040000fa
:0400b4001204000032
:020000040000fa
:0400b800120400002e
:020000040000fa
:0400bc00120400002a
:020000040000fa
:0400c0001204000026
:020000040000fa
:0400c4001204000022
:020000040000fa
:0400c800120400001e
:020000040000fa
:0400cc00120400001a
:020000040000fa
:0400d0001204000016
:020000040000fa
:0400d4001204000012
:020000040000fa
:0400d800120400000e
:020000040000fa
:0400dc00120400000a
:020000040000fa
:0400e0001204000006
:020000040000fa
:0400e4001204000002
:020000040000fa
:0400e80012040000fe
:020000040000fa
:0400ec0012040000fa
:020000040000fa
:0400f00012040000f6
:020000040000fa
:0400f40012040000f2
:020000040000fa
:0400f80012040000ee
:020000040000fa
:0400fc0012040000ea
:020000040000fa
:0401000012040000e5
:020000040000fa
:0401040012040000e1
:020000040000fa
:0401080012040000dd
:020000040000fa
:04010c0012040000d9
:020000040000fa
:0401100012040000d5
:020000040000fa
:0401140012040000d1
:020000040000fa
:0401180012040000cd
:020000040000fa
:04011c0012040000c9
:020000040000fa
:0401200004030000d4
:020000040000fa
:0401240012040000c1
:020000040000fa
:0401280012040000bd
:020000040000fa
:04012c0012040000b9
:020000040000fa
:0401300012040000b5
:020000040000fa
:0401340012040000b1
:020000040000fa
:0401380012040000ad
:020000040000fa
:04013c0012040000a9
:020000040000fa
:0401400012040000a5
:020000040000fa
:0401440012040000a1
:020000040000fa
:04014800120400009d
:020000040000fa
:04014c001204000099
:020000040000fa
:040150001204000095
:020000040000fa
:040154001204000091
:020000040000fa
:04015800120400008d
:020000040000fa
:04015c001204000089
:020000040000fa
:040160001204000085
:020000040000fa
:040164001204000081
:020000040000fa
:04016800120400007d
:020000040000fa
:04016c001204000079
:020000040000fa
:040170001204000075
:020000040000fa
:040174001204000071
:020000040000fa
:04017800120400006d
:020000040000fa
:04017c001204000069
:020000040000fa
:040180001204000065
:020000040000fa
:040184001204000061
:020000040000fa
:04018800120400005d
:020000040000fa
:04018c001204000059
:020000040000fa
:040190001204000055
:020000040000fa
:040194001204000051
:020000040000fa
:04019800120400004d
:020000040000fa
:04019c001204000049
:020000040000fa
:0402080012040000dc
:020000040000fa
:04020c0012040000d8
:020000040000fa
:0402100012040000d4
:020000040000fa
:0402140012040000d0
:020000040000fa
:0402180012040000cc
:020000040000fa
:04021c0012040000c8
:020000040000fa
:0402200012040000c4
:020000040000fa
:0402240012040000c0
:020000040000fa
:0402280012040000bc
:020000040000fa
:04022c0012040000b8
:020000040000fa
:0402300012040000b4
:020000040000fa
:0402340012040000b0
:020000040000fa
:0402380012040000ac
:020000040000fa
:04023c0012040000a8
:020000040000fa
:0402400012040000a4
:020000040000fa
:0402440012040000a0
:020000040000fa
:04024800120400009c
:020000040000fa
:04024c001204000098
:020000040000fa
:040250001204000094
:020000040000fa
:040254001204000090
:020000040000fa
:04025800120400008c
:020000040000fa
:04025c001204000088
:020000040000fa
:040260001204000084
:020000040000fa
:040264001204000080
:020000040000fa
:04026800120400007c
:020000040000fa
:04026c001204000078
:020000040000fa
:040270001204000074
:020000040000fa
:040274001204000070
:020000040000fa
:04027800120400006c
:020000040000fa
:04027c001204000068
:020000040000fa
:040280001204000064
:020000040000fa
:040284001204000060
:020000040000fa
:04028800120400005c
:020000040000fa
:04028c001204000058
:020000040000fa
:040290001204000054
:020000040000fa
:040294001204000050
:020000040000fa
:04029800120400004c
:020000040000fa
:04029c001204000048
:020000040000fa
:0402a0001204000044
:020000040000fa
:0402a4001204000040
:020000040000fa
:0402a800120400003c
:020000040000fa
:0402ac001204000038
:020000040000fa
:0402b0001204000034
:020000040000fa
:0402b4001204000030
:020000040000fa
:0402b800120400002c
:020000040000fa
:0402bc001204000028
:020000040000fa
:0402c0001204000024
:020000040000fa
:0402c4001204000020
:020000040000fa
:0402c800120400001c
:020000040000fa
:0402cc001204000018
:020000040000fa
:0402d0001204000014
:020000040000fa
:0402d4001204000010
:020000040000fa
:0402d800120400000c
:020000040000fa
:0402dc001204000008
:020000040000fa
:0402e0001204000004
:020000040000fa
:0402e4001204000000
:020000040000fa
:0402e80012040000fc
:020000040000fa
:0402ec0012040000f8
:020000040000fa
:0402f00012040000f4
:020000040000fa
:0402f40012040000f0
:020000040000fa
:0402f80012040000ec
:020000040000fa
:0402fc0012040000e8
:020000040000fa
:0403000012040000e3
:020000040000fa
:0403040012040000df
:020000040000fa
:0403080012040000db
:020000040000fa
:04030c0012040000d7
:020000040000fa
:0403100012040000d3
:020000040000fa
:0403140012040000cf
:020000040000fa
:0403180012040000cb
:020000040000fa
:04031c0012040000c7
:020000040000fa
:0403200012040000c3
:020000040000fa
:0403240012040000bf
:020000040000fa
:0403280012040000bb
:020000040000fa
:04032c0012040000b7
:020000040000fa
:0403300012040000b3
:020000040000fa
:0403340012040000af
:020000040000fa
:0403380012040000ab
:020000040000fa
:04033c0012040000a7
:020000040000fa
:0403400012040000a3
:020000040000fa
:04034400120400009f
:020000040000fa
:04034800120400009b
:020000040000fa
:04034c001204000097
:020000040000fa
:040350001204000093
:020000040000fa
:04035400120400008f
:020000040000fa
:04035800120400008b
:020000040000fa
:04035c001204000087
:020000040000fa
:040360001204000083
:020000040000fa
:04036400120400007f
:020000040000fa
:04036800120400007b
:020000040000fa
:04036c001204000077
:020000040000fa
:040370001204000073
:020000040000fa
:04037400120400006f
:020000040000fa
:04037800120400006b
:020000040000fa
:04037c001204000067
:020000040000fa
:040380001204000063
:020000040000fa
:04038400120400005f
:020000040000fa
:04038800120400005b
:020000040000fa
:04038c001204000057
:020000040000fa
:040390001204000053
:020000040000fa
:04039400120400004f
:020000040000fa
:04039800120400004b
:020000040000fa
:04039c001204000047
:020000040000fa
:100400002f8020000eff27000e0188000000000052
:10041000000020000000e000020032000001200087
:100420002002880014000700000107000000e0001f
:1004300003003a008055210001002000020037002f
:100440000000200001002000810f70000100320038
:1004500014000700000020000000e000020032004d
:1004600000000200000000000a1502000000000069
:100470000040da000000fe004440a9000001200016
:100480000000e000030032000020200090018800fe
:100490004440a800000006008a1f78008b1f7800e7
:1004a00000000600a1028800800478000000eb0034
:1004b0001f003700e284440054a0b4009905ba003c
:1004c000e284440054a0b4009906ba00e2844400d7
:1004d00054a0b4000006eb00476fde00fd07b20039
:1004e000ae018800636ce10003003a00eaff0700f8
:1004f0000000eb000e003700606ce10008003a00dd
:10050000004deb000a05e800020039003420ec0041
:100510000af0a0008b05e900f9ff3e000400370057
:100520006168e100010032000086eb000b0007006b
:1005300019c7ba001905ba000e04e00003003a001a
:100540000a00e000dbff3a0000000600fe07b200f0
:10055000ae0288008a047800f5ff37000cd0a300b3
:10056000e20f4d001c00390089027800354dba00b9
:100570000a05e800020039003420ec000af0a0006f
:100580008b05e9000f003200254dba000a05e8008e
:10059000020039003420ec000af0a0008b05e900cd
:1005a000080032000c00e0000600320015cdba0051
:1005b0000a05e800020039003420ec000af0a0002f
:1005c0008b05e9008984e80054a0b4000b00e0002a
:1005d000e2ff3a00000006009902ba00055d7800cb
:1005e0008b05e900f7ff3200c82ade00055d7800c0
:1005f0008b05e900f3ff32000c00e000f1ff320050
:1006000019ddba00eeff37003600f800809fbe000b
:10061000829fbe00849fbe00869fbe003200f8000d
:100620003400f80010002000a00188000020200005
:10063000900188000000fa0000c8bf000004e0003c
:1006400010003a002104800000802000008060003b
:100650000000e0000d003a00611780000002200059
:100660000080600000f0a7000000ea000000e90040
:100670004f00de0000407800f30807008bc0a9009f
:1006800003003700000000000100370000000000f8
:100690000080fa003400f9003200f9004f03be0078
:1006a0004f02be004f01be004f00be003600f900f1
:1006b000004006003600f800809fbe00829fbe000a
:1006c000849fbe00869fbe00881f78003200f8001d
:1006d0003400f80010002000a00188000020200055
:1006e000900188001a00fa000040eb00004f7800eb
:1006f0000000eb00100798000040eb004047980016
:10070000210037000000000010118000610060002f
:100710000000e00007003a001e0090000000e80022
:10072000100798009e009000703e2000808f5000bf
:10073000f5ff360010118000610060000000e0004d
:10074000070032004e4090000080fb003111800015
:1007500081407800000047000150980007003700f2
:100760004e4090000080fb00000047008040eb00fe
:100770000150980010c0b300004f78004e40900028
:100780000040e800404798004e409000f34f500072
:10079000dcff36003e049000660047006a0040001f
:1007a00022012000030020005c040700800f540099
:1007b0000200320010c0b300004f78001e407800e5
:1007c0000004a2000004e0000a00320066004700b6
:1007d0000b0807000004a2000004e0000200320041
:1007e0005205070004003700660047002505070092
:1007f000010037003a0507008560a9000080fa0073
:100800003400f9003200f9004f0478004f03be00b5
:100810004f02be004f01be004f00be003600f9007f
:10082000004006000040da000000fe000000050065
:100830000001be001b0007000470a70003f0a10028
:1008400003f8a30013003a006509b100100032005c
:10085000090035006928e100020035000100280088
:100860000000050000004000818048008502e9008a
:10087000fcff3a0000000600f88f4200050035003a
:100880008100d1000080d3008502e800fcff3a001f
:10089000000006008000eb00000005006011b800b9
:1008a00074013700c70ade00f107b200f50fb2008d
:1008b00008003200e1cf4200020032000170a000c7
:1008c00024000500810f70000100320004080500bb
:1008d00044000500810f700002003a00140005007a
:1008e0008502e9000000400081c04800fcff3b0099
:1008f0000170a00024000500889fbe008a9fbe00f2
:100900008c1f7800b0010700b701330003866c002c
:100910006450e100240032006420e100270032002e
:100920006150e100220032006120e100210032002c
:100930008b854200eb07b1000134b800003ab800e3
:100940000804420089844a00013ab8000030b80027
:100950008880400009014a00040033000000400084
:1009600081804800020149008b05e900c909dd00ca
:10097000830170000100320013002000c814de0063
:100980004814dd004709de001200b200c808de008e
:10099000088470006601070001f0a1000cf0a700b8
:1009a00001f0a000990137006120e1009b013200b5
:1009b0000801be000200be00f7ff37006150e100f1
:1009c000fcff3a0095013700889fbe008a9fbe0059
:1009d00030044200b0844a0030054b0090854b0043
:1009e0006000b1000898be000a90be000440e1001b
:1009f00005c8e10006d0e10007d8e100020031009f
:100a0000680040001008e8004f05be004f04be001b
:100a100000000600889fbe008a9fbe003004be0012
:100a20002005be000418540005985c0006185d00ff
:100a300007985d00110020000440e10005c8e100b6
:100a400006d0e10007d8e100010039008000eb008a
:100a5000108810004f05be004f04be0000000600c5
:100a60001200fa00889fbe008a9fbe008c9fbe00c5
:100a7000e0b79f00f1b79f0082bf9f0093bf9f0028
:100a80000605be000404be000000eb00d0b79f00c6
:100a9000c0b79f00b0b79f00a0b79f0090b79f005e
:100aa0000006eb005fb19700cfb0970082014100d4
:100ab0003fb097000200e00004003d00370007004f
:100ac0007e805700c0ff0700030037003300070097
:100ad0007e805700cfff0700dfb697000d00e000d3
:100ae0000c0035006fb29700ffb297000fbb970064
:100af0009fbb970010002000010020006011b8008b
:100b0000000272008182720002037300838373000b
:100b10001b0007000c06e80001042000810f5600ae
:100b2000e0ff3a000d00e00004003d000802be00b6
:100b30000a03be007e805700a3ff07005fa897004e
:100b40000000e00005003a001fb29700afb2970026
:100b50003fb39700cfb39700090007006fb097002d
:100b6000ffb097000fb997009fb997004f06be00de
:100b70004f05be004f04be000080fa0000000600d2
:100b80000100070000000600a4b79f00b5b79f0052
:100b9000c6b79f00d7b79f00000006004f09de00d0
:100ba00082817100b3b79f004f01de008180400059
:100bb00082807000a1b79f008fb097004f09de00c0
:100bc000000040000200700090b79f007fa89700cf
:100bd0004f01de00818040008280700081b79f005d
:100be0000d0007004f3ade000000400004007000d6
:100bf000f0af9f00080007000402420085824a000f
:100c000006034b0087834b00dfff07000802be008e
:100c10000a03be00000006002fb29700bfb2970083
:100c20004fb39700dfb3970000000600881f7800dd
:100c300018002000881f780089ff07008f87e900cf
:100c40004f04780000000600801feb0084ff0700bf
:100c50008f87e90000000600889fbe008a9fbe00c3
:100c6000e00f5000e08f5800e00f5900e08f59006e
:100c70000c003d006044b8006055b800000054000e
:100c800081805c0002015d0083815d00180020000e
:100c90001500070008003d00180007000004eb00e5
:100ca000050037000004eb000f00070002003d00c4
:100cb0001200070018002000dcff07000800e00019
:100cc000060032006022b8006033b8000000520015
:100cd00081805a0002015b0083815b004f05be00ea
:100ce0004f04be0000000600e00f5200e08f5a00e3
:100cf000e00f5b00e08f5b00000006006044b8007e
:100d00006055b8000402540085825c0006035d0053
:100d100087835d0000000600889fbe008a9fbe009a
:100d20008c1f7800e00f5000e08f5800e00f590052
:100d3000e08f59000d003d006044b8006055b800d8
:100d40000000540081805c0002015d0083815d0031
:100d50001c0020000820e10009a8e1000ab0e10021
:100d60000bb8e1000d003d00080037000006eb0065
:100d7000e00f5200e08f5a00e00f5b00e08f5b0055
:100d800006003d006044b8006055b80004025400fd
:100d900085825c0006035d0087835d00aaff070073
:100da0000c00e000060032006022b8006033b8009a
:100db0000000520081805a0002015b0083815b00c9
:100dc0004f0678004f05be004f04be00000006002d
:100dd000889fbe008a9fbe008c1f78000006eb0033
:100de000e00f5000e08f5800e00f5900e08f5900ed
:100df00007003d006044b8006055b8000000540092
:100e000081805c0002015d0083815d001c00200088
:100e1000e00f5200e08f5a00e00f5b00e08f5b00b4
:100e200007003d006044b8006055b800040254005b
:100e300085825c0006035d0087835d000c00a200d4
:100e4000790007000c00e000060032006022b800c4
:100e50006033b8000000520081805a0002015b003c
:100e600083815b004f0678004f05be004f04be0033
:100e700000000600889fbe008a9fbe0000827000ae
:100e80000402710004827100260032000004be00da
:100e90000200be006011b8006b092000950220001e
:100ea0000182cf000a0039000541b1000082cf0065
:100eb000070039000541b1000982cf000400390064
:100ec0000541b1000882cf00010039000541b100a1
:100ed00005425200120032000a003b00828171007c
:100ee000610164008100d1000080d3008984d300b7
:100ef0000884d3008b05e8000442e800f7ff3a00bd
:100f0000070037000804440089844c0000004800b2
:100f1000818048008b05e9000442e900f9ff3a00ae
:100f2000030007004f05be004f04be00000006008e
:100f300081002000618055000b003d000b00200067
:100f400061fe2f000100e1001d003400828171006c
:100f5000610164008904d1000884d3000000e80026
:100f6000faff3a0071002000610064000300700085
:100f7000020060000900320061044400e0844c007b
:100f80000988a500050032008b05e8006808e1002b
:100f900002003a008904d1000884d300f20f200037
:100fa0000258e10005003d00c75ddd00f907b20011
:100fb0008980750008007800000006000bf8270003
:100fc0008b007800000005000004be0035fe07001d
:100fd0000003be000405be000200be0031fe070093
:100fe000844f7500000006000200be006450e1005e
:100ff000050036006420e100020036000968a30005
:1010000001003a000800be000160a0004f06780011
:101010004f05be004f04be0000000600f0ff2f0089
:10102000f1ff2700f9ff3700889fbe008a9fbe00ae
:101030008c9fbe000404b8000506b8008904460071
:1010400060854e000606b8000a054600e0854e00a1
:101050000706b8008b054600040eb8008904460058
:101060000a854e00e0854d00050eb8000a054600d1
:101070008b854e00060eb8008b0546000416b8009e
:101080000a0546008b854e000516b8008b05460004
:10109000041eb8008b0546000800be000a01be0011
:1010a0004f06be004f05be004f04be000000060004
:020000040000fa
:1010b00083fd00000000000083ff0000000000002e
:1010c0004c69000067610000646f000000000000d0
:020000040000fa
:1010d0000000fa00230020006104200072052000b7
:1010e00024742000014a7800024a7800034a7800fc
:1010f00050052000303b8800a00a2000303b8800cb
:1011000027a6a8002786a8002746a9002666ef0084
:1011100027e6a80023e6a80023c6a8001131800016
:10112000f03f2c000080600000a0a000103188007b
:1011300000c0eb0022e6b7008bc0a90011068000ba
:10114000f08f2f00808060000060200001007000a0
:10115000100688009bc0a80027a6a9000080fa00fe
:10116000000006000200fa00000f780010c0b30073
:10117000d70307001e0078005001be004000be00eb
:1011800004202100a50720006033b80010ff0700ed
:10119000843e2000050020006033b800a3fe070055
:1011a0000000be00340607000040eb00c803070043
:1011b0000080fa00000006000400fa000000eb00c6
:1011c000000f7800180037000000eb0010079800af
:1011d000110037001e009000804078001e0078004b
:1011e0000040780080c1eb00014178008040780029
:1011f00010c0b300ed0007000004a2000004e000ee
:10120000020032000040eb000b0037001e0090008f
:101210000000e800100798001e009000e70f500043
:10122000ecff34001e0fe8001e007800e40f5000b1
:10123000e5ff340010c0b3000080fa000000060093
:101240000200fa00000f78007a0007000004a200f4
:101250000004e000020032000040eb002e003700e6
:101260001e0078001040780041c0b30091000700d4
:101270000004a2000004e000020032000040eb0085
:10128000250037001e007800904090001e00780076
:101290001040780080c1eb00014178008040780068
:1012a00010c0b300c10007000004a2000004e00069
:1012b000020032000040eb00170037001e007800eb
:1012c00010407800804078000040eb007900070073
:1012d0000004a2000004e000020032000040eb0025
:1012e0000d003700520107000004a2000004e000d6
:1012f000020032000040eb00070037004d000700fd
:101300000004a2000004e000020032000040eb00f4
:101310000100370010c0b3000080fa000000060092
:101320000200fa00000f7800420007000004a2004b
:101330000004e000020032000040eb003b003700f8
:101340001e0078001040780041c0b300590007002b
:101350000004a2000004e000020032000040eb00a4
:101360003200370000502300c1002000c2050700f2
:101370001e007800204190001e00780090409000f0
:101380001e0078001040780082417800014178000a
:10139000804078000040eb00840007000004a200b9
:1013a0000004e000020032000040eb001f003700a4
:1013b00000a0260081012000af0507001e00780074
:1013c00010407800804078000040eb0039000700b2
:1013d0000004a2000004e000020032000040eb0024
:1013e0001200370000a0260081012000a20507009e
:1013f0000f0107000004a2000004e0000200320018
:101400000040eb00090037000a0007000004a200ba
:101410000004e000020032000040eb00030037004f
:1014200010c0b30000e8b70010c0b3000080fa009d
:10143000000006000400fa00007122001007980066
:101440000000eb00000f780011c0b3000000eb00bb
:10145000360307000300370000f4210001002000dc
:101460008505070010002000330407000004e00099
:10147000050032001e0fe8001e0090009e0078005c
:10148000808f5000f4ff39008040eb000000eb003b
:101490002603070010c0b3009e0090001e017800d4
:1014a000810f5100010039000040eb000080fa007c
:1014b000000006000600fa004047980051479800d7
:1014c000ce4090005e40900080cf500002003a0075
:1014d00010c0b3003300370011c0b300100020006b
:1014e00012030700803e2000100798000000eb0068
:1014f000000f78001c0037000000eb000e0407000e
:101500000004e000140032005e4090000040e9005a
:1015100050479800de4090004e40900080cf500031
:101520000d0036000300370000f421000100200008
:10153000510507000000eb00ff0307000004e00076
:10154000050032001e0fe8001e0090009e0078008b
:10155000808f5000f4ff39001e0090009e0078003c
:10156000808f500005003e00de4090004e4090000d
:1015700080cf5000e0ff3e00010037000000000077
:101580008040eb0010002000e802070010c0b3000c
:101590009e0090001e017800810f5100010039006b
:1015a0000040eb000080fa00000006000c00fa008a
:1015b000004f9800114f9800224f9800334f980029
:1015c00010c0b3002005070011c0b3002e489000e2
:1015d0000b0307000e4890000004a2000004e00086
:1015e0000300320011c0b3003e489000040307001e
:1015f00011c0b3001e489000f801070011c0b300ed
:101600002e4890003f0207000e4890000004a20000
:101610000004e0000300320011c0b3003e48900017
:10162000380207000040eb00004f78001700370039
:101630000e4890000004e000060032002e489000a2
:10164000610307000004a2000080fb00004f780047
:101650000e0037002e4890005b0307000004a20034
:101660000004e000070032003e48900056030700e7
:101670000004a2000004e00002003200100020007c
:10168000010037000000eb00004f78001e4078009a
:101690000004a2000004e000e5ff3a000040eb0077
:1016a000104798000040eb00204798000040eb00f6
:1016b0003047980000712200300798000000eb00ce
:1016c000200798003c0037000e4890000004e0001e
:1016d0000d0032002e4890003b0307000004e0009c
:1016e000050032008040eb002e4890000502070004
:1016f00010c0b3001047980000e82300010020004c
:10170000dd0407002c00370011c0b3002e48900004
:10171000bb02070000f4210001002000d6040700ee
:101720002e489000280307000004e0000500320066
:101730008040eb002e489000f201070010c0b3007b
:10174000204798008040eb002e489000ac02070034
:1017500011c0b3003e489000a902070000f4210028
:1017600001002000c40407003e4890001603070053
:101770000004e000050032008040eb003e4890008d
:10178000e001070010c0b300304798008040eb0034
:101790003e4890009a0207002e4090000004e000ae
:1017a000050032003e4090000004e00002003200dc
:1017b00010c0b300104798001e4090000004a20023
:1017c0000004e000070032002e0090000000e80056
:1017d00020079800ae0090003e009000808f5000df
:1017e000b9ff39008040eb0000c0eb008402070025
:1017f0008040eb0000c0eb00c20107008040eb001e
:1018000000c0eb00750107000040eb008e040700ec
:1018100010c0b3002e019000be009000810f510057
:10182000010039000040eb000080fa0000000600d3
:101830000400fa0010c0b30030020700007122005b
:10184000100798000000eb00000f7800030037003d
:1018500000f4210001002000870407002003070096
:101860000004a2000004e000050032001e0fe800a2
:101870001e0090009e007800808f5000f4ff390019
:101880000040eb001d02070010c0b3009e00900056
:101890001e017800810f5100010039000040eb006b
:1018a0000080fa00000006000400fa0010c0b30037
:1018b0006504070080382100100798000000eb0045
:1018c000000f78000300370000f421000100200021
:1018d000690407001e0fe8001e0090009e007800bb
:1018e000808f5000f8ff390010c0b30003020700da
:1018f00000502300c10020005f0407000040eb00ff
:10190000fe0107000068ef000040eb004e040700f6
:1019100010c0b3000080fa00000006001000fa00ba
:10192000500798006207980073079800f0ff2f0097
:101930000100200030079800410798006e009000d9
:10194000fe009000e00f5000e08f580002003a00c7
:101950003e0090004c0037000040eb00004f780044
:101960005e009000104078000080fb004800dd0021
:101970008000eb0010079800210798005e0090009f
:101980000000e80050079800300037003e0190004a
:10199000ce0190001e009000ae0090000001690092
:1019a0008181690000002800010020000202780007
:1019b00003017800800178000100780003026200d2
:1019c000000061008000eb00c000dd00000020008e
:1019d0000001be006120b80000017100818171002a
:1019e000e00f5100e08f59000b0032003e009000e4
:1019f000ce009000000140008181480010022100cb
:101a00000100200000006900818069003007980013
:101a100041079800060037003e009000ce0090007d
:101a2000000040008180480030079800410798007e
:101a30001e4fe8001e009000ae0090000000400025
:101a40008180480010079800210798001e40780008
:101a5000e74f5000cdff34006e009000fe00900074
:101a600061005000e08058006007980071079800fe
:101a70006e009000fe009000e00f5000e08f5800d4
:101a8000b5ff3a003e0090000080fa00000006001a
:101a90000000fa00e842a800e902a900e882a900d3
:101aa000ec82a800113a8000f00b20000081600059
:101ab0006004200071052000237420008049780014
:101ac00081497800824978002135800000fc2f0090
:101ad00000806000e001b30020358800713680008e
:101ae000f00f2c00808060000030200001007000aa
:101af00070368800103a8000000178000260a00073
:101b000060042000710520002374200080497800c3
:101b10008149780082497800000828000011880077
:101b20000040290010118800300320004011880077
:101b30008560a9008580a90041058000000027007c
:101b400001007000400588009560a8000080fa0040
:101b5000000006000400fa00100798001e00900024
:101b60006a00400072002000030020006bff0700a5
:101b70009e009000800878000040eb00004f780045
:101b8000000000000100370000000000111180007b
:101b900000102000008060000000e000fbff320029
:101ba0001e80fb009e0090006a00400061407800ab
:101bb0000080fb00201188001e4fe8001e407800c6
:101bc000e84f5000f0ff36000080fa0000000600e9
:101bd0000400fa00000f78001107980000000000d0
:101be00001003700000000001111800000102000eb
:101bf000008060000000e000fbff32001e00780063
:101c0000104078000080fb00201188001e0fe800c3
:101c10001e007800104078000004e000f1ff3a0058
:101c20000080fa00000006000200fa00000f7800b1
:101c300000000000010037000000000011118000ca
:101c400000102000008060000000e000fbff320078
:101c50001e007800104078008000fb00f00f20008c
:101c600000806000201188001e0fe8001e00780030
:101c7000104078000004e000efff3a000080fa0016
:101c8000000006001600fa00200f980030c8b300cc
:101c9000004f780020c0b300104798002e08900035
:101ca0008e007800b0187800a0107800e480400022
:101cb00064004000b0187800a0107800e480400074
:101cc00064004000900878008180e8000080e8000f
:101cd0000e0078009fff07000080fa000000060059
:101ce0000600fa00c185280003000900315f780072
:101cf0004e00b10022002000030020000e007800fa
:101d000006ff0700200798005e40900020479800db
:101d10004e40900030479800410020000e007800af
:101d2000abff07000080fa00000006000600fa0082
:101d30008185280003000900315f78004e00b10062
:101d400022002000030020000e007800f3fe0700b0
:101d5000200798005e409000204798004e40900079
:101d600030479800410020000e00780098ff0700df
:101d70000080fa00000006000000fa00d8e2a90086
:101d8000e6e4a900e802a900ea04a900e822a90003
:101d9000f022a900f002a900d822a900d842a90087
:101da000d862a900d982a900d9a2a900d882a90025
:101db000d8a2a900d8c2a900e6c4a900d802a900e7
:101dc000d962a900d942a900d922a90039e6a900ff
:101dd0009400a9000080fa00000006000200fa004a
:101de000004f7800114798001e80fb00e20f500062
:101df0001f003200e20f500005003c000000e00030
:101e000008003200e10f50001000320035003700aa
:101e1000e30f500020003200e40f50002800320091
:101e2000300037001e4090000080fb006100600021
:101e30004700dd00e2168000f1f72f00810061000d
:101e400001007000e01688002c0037001e40900052
:101e50000080fb006100600062178000e1ff2f003e
:101e600081006100010070006017880023003700c6
:101e70001e4090000080fb006100600000004000f8
:101e800062178000d1ff2f00810061000100700007
:101e900060178800190037001e4090000080fb008a
:101ea0006100600000004000a2178000d1ff2f00f9
:101eb0008100610001007000a01788000f0037004a
:101ec0001e4090000080fb0061006000a2178000af
:101ed000e1ff2f008100610001007000a017880061
:101ee00006003700dce2a900ec02a900ec22a90000
:101ef000f422a900f402a900000000000080fa000a
:101f0000000006000200fa00004f78001147980018
:101f10001e80fb00e30f500030003200e30f500042
:101f200007003c00e10f500018003200e10f5000a4
:101f300020003c000000e0000a0032005900370099
:101f4000e50f500039003200e50f50002d0035003c
:101f5000e60f50003f003200e70f5000470032000c
:101f6000500037001e4090000080fb0061006000c0
:101f700000004000e2168000d1ff2f0081006100c8
:101f800001007000e01688004f0037001e409000ee
:101f90000080fb00610060004200dd00e21680006e
:101fa000b1ff2f008100610001007000e016880081
:101fb000450037001e4090000080fb00610060007b
:101fc0004300dd00e216800071ff2f0081006100f8
:101fd00001007000e01688003b0037001e409000b2
:101fe0000080fb00610060004c00dd00e216800014
:101ff000f1ff2e008100610001007000e0168800f2
:10200000310037001e4090000080fb00610060003e
:102010004d00dd00e2168000f1ff2d00810061001f
:1020200001007000e0168800270037001e40900075
:102030000080fb00610060004400dd00e2168000cb
:10204000f1fe2f008100610001007000e0168800a1
:102050001d0037001e4090000080fb006100600002
:102060004500dd00e2168000f1fd2f0081006100d7
:1020700001007000e0168800130037001e40900039
:102080000080fb00610060004600dd00e216800079
:10209000f1fb2f008100610001007000e016880054
:1020a00009003700dc22a900dc42a900dc62a9009b
:1020b000dd82a900dda2a900dc82a900dca2a900c2
:1020c000dcc2a900000000000080fa000000060049
:1020d0000200fa00004f78001e80fb0061006000e3
:1020e000e2168000e1ff2f00810061000100700016
:1020f000e01688000080fa00000006000200fa00e6
:10210000004f78001e80fb00610060004b00dd0086
:10211000e2168000f17f2f00810061000100700055
:10212000e01688000080fa00000006000400fa00b3
:10213000000f7800214798001e0078000000e000a2
:102140000a003a002e4090000080fb006100600011
:102150004a00dd00e2168000f1bf2f00810061001f
:1021600001007000e0168800090037002e40900042
:102170000080fb00610060004900dd00e216800085
:10218000f1df2f008100610001007000e01688007f
:102190000080fa00000006000000fa00e082a800bb
:1021a000f1e2a800e0a2a800e0c2a800d022a800a6
:1021b000c0e2a900e0e4a900e002a900e022a90031
:1021c000f1c2a900f182a900f1a2a900e042a90090
:1021d000e062a900c062a800c042a800c862a800ce
:1021e000e264a900f062a800e862a80017e2a90072
:1021f00077e2a90001e6a9000080fa0000000600cd
:102200000200fa00004f7800114798001e80fb0082
:10221000e30f50002f003200e30f500007003c0096
:10222000e10f500018003200e10f50001f003c0089
:102230000000e0000a00320058003700e50f5000af
:1022400038003200e50f50002c003500e60f50003a
:102250003e003200e70f5000460032004f003700ca
:102260001e4090000080fb00610060004700dd0020
:1022700022168000f1f72f0081006100010070003c
:10228000201688004e0037001e4090000080fb00a2
:102290006100600022178000e1ff2f0081006100d3
:1022a0000100700020178800450037001e40900094
:1022b0000080fb00610060000000400022178000e9
:1022c000d1ff2f00810061000100700020178800fd
:1022d0003b0037001e4090000080fb006100600062
:1022e0004e00dd00a2178000f1ff2b00810061008d
:1022f00001007000a0178800310037001e409000d8
:102300000080fb00610060004c00dd00a21780002f
:10231000f1ff2e008100610001007000a01788000d
:10232000270037001e4090000080fb006100600025
:102330004d00dd00a2178000f1ff2d00810061003b
:1023400001007000a01788001d0037001e4090009b
:102350000080fb00610060004200dd002217800069
:10236000b1ff2f008100610001007000201788007c
:10237000130037001e4090000080fb0061006000e9
:102380004300dd002217800071ff2f0081006100f3
:10239000010070002017880009003700c4e2a9007e
:1023a000e402a900e422a900f5c2a900f582a9006f
:1023b000f5a2a900e442a900e462a900000000001f
:1023c0000080fa00000006000400fa002047980090
:1023d0000040eb00004f78002e4090000080fb0092
:1023e000e20f50001e003200e20f500005003c00da
:1023f0000000e00008003200e10f50000f00320042
:1024000032003700e30f50001e003200e40f50008e
:10241000250032002d003700101780004400de0038
:10242000614060000080fb0000f0a7000000ea00af
:102430000000ea004f00de00004f78009017800097
:102440004f00de00004078000080fb0000f0a70095
:102450000000ea000000ea004f00de00004f7800b4
:10246000101780004500de00614060000080fb0026
:1024700000f0a7000000ea000000ea004f00de00c4
:10248000004f7800101780004600de0061406000b9
:102490000080fb0000f0a7000000ea000000ea0056
:1024a0004f00de00004f7800901680000000d10041
:1024b000614060000080fb0000f0a7000000ea001f
:1024c0000000ea004f00de00004f78000040eb0003
:1024d000004f78001e4078000080fa0000000600df
:1024e0000000fa00501680006800600000f0a700ad
:1024f0000000ea000000e9004f00de000040780024
:102500000080fa00000006000000fa00501780006a
:102510004300de00614060000080fb0000f0a70087
:102520000000ea000000ea004f00de0000407800f2
:102530000080fa00000006000400fa00100798006e
:102540000040eb00004f78001e0090000000e0000b
:1025500007003a00101680006800600000f0a70035
:102560000000ea000000e9004f00de00004f7800a4
:102570001e009000e10f500007003a001016800086
:102580006400600000f0a7000000ea000000e9001d
:102590004f00de00004f78001e4078000080fa00f7
:1025a000000006000000fa00f0c2a900ecc4a80078
:1025b000f0e2a900ece4a800f102a900ed04a800f3
:1025c000113a8000f00b20000081600060042000c0
:1025d000710520002374200080497800814978002b
:1025e00082497800a1368000f00f2c000080600046
:1025f0000080a000a0368800d136800000fc2f00ab
:10260000008060000010a000d03688009136800065
:10261000f00f2c008080600000402200010070005c
:1026200090368800103a8000000178000260a00017
:102630006004200071052000237420008049780088
:102640008149780082497800810c800000c0210017
:1026500001007000800c88009061a800810c80004f
:1026600080ff2f00008060006000b300800c8800b5
:1026700092e1a900900c8000f001b300900c88005a
:10268000f0ff2000b00c88009421ef00f0ff200044
:1026900010088800d10c800000c0210001007000eb
:1026a000d00c88009a61a800d10c800080ff2f0018
:1026b000008060006000b300d00c88009ce1a9009d
:1026c000e00c8000f001b300e00c8800f0ff200077
:1026d000000d88009e21ef00f0ff20001008880008
:1026e000210d800000c0210001007000200d880035
:1026f000a461a800210d800080ff2f0000806000f1
:102700006000b300200d8800a6e1a900300d800014
:10271000f001b300300d8800f0ff2000500d88005c
:10272000a821ef00f0ff2000100888000080fa00c8
:10273000000006000e00fa00204f9800314f98006c
:10274000424f98008087270001182400008fbe00a8
:102750002e4890000080fb008000eb004ff807003f
:102760001e01be0064f8070031f80700200798003a
:102770003e4890000080fb008000eb0047f8070017
:102780001e01be005cf8070029f80700300798001a
:102790004e4890000080fb008000eb003ff80700ef
:1027a0001e01be0054f8070021f8070040079800fa
:1027b000ae009000b10c8800f1ff20002e009000c8
:1027c00000805000a00c8800be009000010d880021
:1027d000f1ff20003e00900000805000f00c8800c7
:1027e000ce009000510d8800f1ff20004e009000b7
:1027f00000805000400d88000080fa0000000600b4
:102800000200fa00000f78001e0078009040780067
:1028100030c8b30080cf5000020032000040eb000f
:102820000f0037001e00780010409000e14f50006c
:1028300003003a001e0078000b0007000800370074
:102840001e007800104090000004e00003003a00f1
:102850001e0078001f000700010037000040eb0059
:102860000080fa00000006000400fa00100798003b
:102870000040eb00004f78001e00900010407800f0
:102880000080fb00f00f50000c003a001eff070014
:102890000080fb008000eb006011b8001e02900079
:1028a000100298002102980032029800430298001a
:1028b00010c0b300004f7800030037000040eb0069
:1028c000004f7800000000001e4078000080fa00f1
:1028d000000006000400fa00100798000040eb001a
:1028e000004f78001e009000104078000080fb0030
:1028f00021022000810f500021003200210220001f
:10290000810f500007003c0001022000810f5000a1
:102910000b00320011022000810f50001200320023
:102920002700370031022000810f500018003200cc
:1029300041022000810f50001b00320020003700b0
:102940001e009000404190001e009000b04090009a
:102950001e0090002040900076ff070010c0b300da
:10296000004f7800190037001e0090000080e8003a
:10297000fcf9070010c0b300004f780013003700c7
:102980000dfa070010c0b300004f78000f003700a9
:102990001e0090000080e80029fa070010c0b30074
:1029a000004f7800090037001e0090000080e8000a
:1029b0005bfa070010c0b300004f78000300370037
:1029c0000040eb00004f7800000000001e4078003f
:1029d0000080fa00000006000000fa002cfc07004e
:1029e000edfd0700e4fc070013000700edfe070003
:1029f000b7f9070000402200410f20001e00070029
:102a00000086280088fc07008afa07000080fa0088
:102a1000000006000000fa00efff07000100370089
:102a20000000000000c8bf000004e000fcff32000e
:102a30009dfb0700fbff37000000fa00e8a2a90099
:102a40000080fa00000006000200fa00004f780043
:102a50001e80fb00610060004500dd006217800001
:102a6000f1fd2f00810061000100700060178800f7
:082a70000080fa0000000600de
:020000040000fa
:102a7800f03fb1000180b10006003500ee03090007
:102a880000000000403fb1000180b100fbff3d00a5
:102a98001000b000203fb00002003500008009009f
:082aa800000000000000060020
:020000040000fa
:102ab000000800000200000080000000000000008c
:020000040000fa
:020000040005f5
:0457f400fffd0000b5
:020000040000fa
:020000040005f5
:0457f800bef20000fd
:020000040000fa
:020000040005f5
:0457fc007f3f0000eb
:00000001FF
