:020000040000fa
:080000000002040000000000f2
:020000040000fa
:04000800c60400002a
:020000040000fa
:04000c00c604000026
:020000040000fa
:04001000c604000022
:020000040000fa
:04001400c60400001e
:020000040000fa
:04001800c60400001a
:020000040000fa
:04001c00c604000016
:020000040000fa
:04002000c604000012
:020000040000fa
:04002400c60400000e
:020000040000fa
:04002800c60400000a
:020000040000fa
:04002c00c604000006
:020000040000fa
:04003000c604000002
:020000040000fa
:04003400c6040000fe
:020000040000fa
:04003800c6040000fa
:020000040000fa
:04003c00c6040000f6
:020000040000fa
:04004000c6040000f2
:020000040000fa
:04004400c6040000ee
:020000040000fa
:04004800c6040000ea
:020000040000fa
:04004c00c6040000e6
:020000040000fa
:04005000c6040000e2
:020000040000fa
:040054005e03000047
:020000040000fa
:04005800c6040000da
:020000040000fa
:04005c00c6040000d6
:020000040000fa
:04006000c6040000d2
:020000040000fa
:04006400c6040000ce
:020000040000fa
:04006800c6040000ca
:020000040000fa
:04006c00c6040000c6
:020000040000fa
:04007000c6040000c2
:020000040000fa
:04007400c6040000be
:020000040000fa
:04007800c6040000ba
:020000040000fa
:04007c00c6040000b6
:020000040000fa
:04008000c6040000b2
:020000040000fa
:04008400c6040000ae
:020000040000fa
:04008800c6040000aa
:020000040000fa
:04008c00c6040000a6
:020000040000fa
:04009000c6040000a2
:020000040000fa
:04009400c60400009e
:020000040000fa
:04009800c60400009a
:020000040000fa
:04009c00c604000096
:020000040000fa
:0400a000c604000092
:020000040000fa
:0400a400c60400008e
:020000040000fa
:0400a800c60400008a
:020000040000fa
:0400ac00c604000086
:020000040000fa
:0400b000c604000082
:020000040000fa
:0400b400c60400007e
:020000040000fa
:0400b800c60400007a
:020000040000fa
:0400bc00c604000076
:020000040000fa
:0400c000c604000072
:020000040000fa
:0400c400c60400006e
:020000040000fa
:0400c800c60400006a
:020000040000fa
:0400cc00c604000066
:020000040000fa
:0400d000c604000062
:020000040000fa
:0400d400c60400005e
:020000040000fa
:0400d800c60400005a
:020000040000fa
:0400dc00c604000056
:020000040000fa
:0400e000c604000052
:020000040000fa
:0400e400c60400004e
:020000040000fa
:0400e800c60400004a
:020000040000fa
:0400ec00c604000046
:020000040000fa
:0400f000c604000042
:020000040000fa
:0400f400c60400003e
:020000040000fa
:0400f800c60400003a
:020000040000fa
:0400fc00c604000036
:020000040000fa
:04010000c604000031
:020000040000fa
:04010400c60400002d
:020000040000fa
:04010800c604000029
:020000040000fa
:04010c00c604000025
:020000040000fa
:04011000c604000021
:020000040000fa
:04011400c60400001d
:020000040000fa
:04011800c604000019
:020000040000fa
:04011c00c604000015
:020000040000fa
:0401200008030000d0
:020000040000fa
:04012400c60400000d
:020000040000fa
:04012800c604000009
:020000040000fa
:04012c00c604000005
:020000040000fa
:04013000c604000001
:020000040000fa
:04013400c6040000fd
:020000040000fa
:04013800c6040000f9
:020000040000fa
:04013c00c6040000f5
:020000040000fa
:04014000c6040000f1
:020000040000fa
:04014400c6040000ed
:020000040000fa
:04014800c6040000e9
:020000040000fa
:04014c00c6040000e5
:020000040000fa
:04015000c6040000e1
:020000040000fa
:04015400c6040000dd
:020000040000fa
:04015800c6040000d9
:020000040000fa
:04015c00c6040000d5
:020000040000fa
:04016000c6040000d1
:020000040000fa
:04016400c6040000cd
:020000040000fa
:04016800c6040000c9
:020000040000fa
:04016c00c6040000c5
:020000040000fa
:04017000c6040000c1
:020000040000fa
:04017400c6040000bd
:020000040000fa
:04017800c6040000b9
:020000040000fa
:04017c00c6040000b5
:020000040000fa
:04018000c6040000b1
:020000040000fa
:04018400c6040000ad
:020000040000fa
:04018800c6040000a9
:020000040000fa
:04018c00c6040000a5
:020000040000fa
:04019000c6040000a1
:020000040000fa
:04019400c60400009d
:020000040000fa
:04019800c604000099
:020000040000fa
:04019c00c604000095
:020000040000fa
:04020800c604000028
:020000040000fa
:04020c00c604000024
:020000040000fa
:04021000c604000020
:020000040000fa
:04021400c60400001c
:020000040000fa
:04021800c604000018
:020000040000fa
:04021c00c604000014
:020000040000fa
:04022000c604000010
:020000040000fa
:04022400c60400000c
:020000040000fa
:04022800c604000008
:020000040000fa
:04022c00c604000004
:020000040000fa
:04023000c604000000
:020000040000fa
:04023400c6040000fc
:020000040000fa
:04023800c6040000f8
:020000040000fa
:04023c00c6040000f4
:020000040000fa
:04024000c6040000f0
:020000040000fa
:04024400c6040000ec
:020000040000fa
:04024800c6040000e8
:020000040000fa
:04024c00c6040000e4
:020000040000fa
:04025000c6040000e0
:020000040000fa
:04025400c6040000dc
:020000040000fa
:04025800c6040000d8
:020000040000fa
:04025c00c6040000d4
:020000040000fa
:04026000c6040000d0
:020000040000fa
:04026400c6040000cc
:020000040000fa
:04026800c6040000c8
:020000040000fa
:04026c00c6040000c4
:020000040000fa
:04027000c6040000c0
:020000040000fa
:04027400c6040000bc
:020000040000fa
:04027800c6040000b8
:020000040000fa
:04027c00c6040000b4
:020000040000fa
:04028000c6040000b0
:020000040000fa
:04028400c6040000ac
:020000040000fa
:04028800c6040000a8
:020000040000fa
:04028c00c6040000a4
:020000040000fa
:04029000c6040000a0
:020000040000fa
:04029400c60400009c
:020000040000fa
:04029800c604000098
:020000040000fa
:04029c00c604000094
:020000040000fa
:0402a000c604000090
:020000040000fa
:0402a400c60400008c
:020000040000fa
:0402a800c604000088
:020000040000fa
:0402ac00c604000084
:020000040000fa
:0402b000c604000080
:020000040000fa
:0402b400c60400007c
:020000040000fa
:0402b800c604000078
:020000040000fa
:0402bc00c604000074
:020000040000fa
:0402c000c604000070
:020000040000fa
:0402c400c60400006c
:020000040000fa
:0402c800c604000068
:020000040000fa
:0402cc00c604000064
:020000040000fa
:0402d000c604000060
:020000040000fa
:0402d400c60400005c
:020000040000fa
:0402d800c604000058
:020000040000fa
:0402dc00c604000054
:020000040000fa
:0402e000c604000050
:020000040000fa
:0402e400c60400004c
:020000040000fa
:0402e800c604000048
:020000040000fa
:0402ec00c604000044
:020000040000fa
:0402f000c604000040
:020000040000fa
:0402f400c60400003c
:020000040000fa
:0402f800c604000038
:020000040000fa
:0402fc00c604000034
:020000040000fa
:04030000c60400002f
:020000040000fa
:04030400c60400002b
:020000040000fa
:04030800c604000027
:020000040000fa
:04030c00c604000023
:020000040000fa
:04031000c60400001f
:020000040000fa
:04031400c60400001b
:020000040000fa
:04031800c604000017
:020000040000fa
:04031c00c604000013
:020000040000fa
:04032000c60400000f
:020000040000fa
:04032400c60400000b
:020000040000fa
:04032800c604000007
:020000040000fa
:04032c00c604000003
:020000040000fa
:04033000c6040000ff
:020000040000fa
:04033400c6040000fb
:020000040000fa
:04033800c6040000f7
:020000040000fa
:04033c00c6040000f3
:020000040000fa
:04034000c6040000ef
:020000040000fa
:04034400c6040000eb
:020000040000fa
:04034800c6040000e7
:020000040000fa
:04034c00c6040000e3
:020000040000fa
:04035000c6040000df
:020000040000fa
:04035400c6040000db
:020000040000fa
:04035800c6040000d7
:020000040000fa
:04035c00c6040000d3
:020000040000fa
:04036000c6040000cf
:020000040000fa
:04036400c6040000cb
:020000040000fa
:04036800c6040000c7
:020000040000fa
:04036c00c6040000c3
:020000040000fa
:04037000c6040000bf
:020000040000fa
:04037400c6040000bb
:020000040000fa
:04037800c6040000b7
:020000040000fa
:04037c00c6040000b3
:020000040000fa
:04038000c6040000af
:020000040000fa
:04038400c6040000ab
:020000040000fa
:04038800c6040000a7
:020000040000fa
:04038c00c6040000a3
:020000040000fa
:04039000c60400009f
:020000040000fa
:04039400c60400009b
:020000040000fa
:04039800c604000097
:020000040000fa
:04039c00c604000093
:020000040000fa
:10040000ef8320000eff27000e018800000000008f
:10041000000020000000e000020032000001200087
:1004200020028800140007005a0107000000e000c5
:1004300003003a00e0232200010020000200370000
:100440000000200001002000810f70000100320038
:1004500014000700000020000000e000020032004d
:100460000000020000000000fa210200000000006d
:100470000040da000000fe004440a900e000200037
:100480000000e000030032000020200090018800fe
:100490004440a800000006008a1f78008b1f7800e7
:1004a00000000600a1028800800478000000eb0034
:1004b0001f003700e284440054a0b4009905ba003c
:1004c000e284440054a0b4009906ba00e2844400d7
:1004d00054a0b4000006eb00476fde00fd07b20039
:1004e000ae018800636ce10003003a00eaff0700f8
:1004f0000000eb000e003700606ce10008003a00dd
:10050000004deb000a05e800020039003420ec0041
:100510000af0a0008b05e900f9ff3e000400370057
:100520006168e100010032000086eb000b0007006b
:1005300019c7ba001905ba000e04e00003003a001a
:100540000a00e000dbff3a0000000600fe07b200f0
:10055000ae0288008a047800f5ff37000cd0a300b3
:10056000e20f4d001c00390089027800354dba00b9
:100570000a05e800020039003420ec000af0a0006f
:100580008b05e9000f003200254dba000a05e8008e
:10059000020039003420ec000af0a0008b05e900cd
:1005a000080032000c00e0000600320015cdba0051
:1005b0000a05e800020039003420ec000af0a0002f
:1005c0008b05e9008984e80054a0b4000b00e0002a
:1005d000e2ff3a00000006009902ba00055d7800cb
:1005e0008b05e900f7ff3200c82ade00055d7800c0
:1005f0008b05e900f3ff32000c00e000f1ff320050
:1006000019ddba00eeff37000c09040000000000fd
:100610003600f800809fbe00829fbe00849fbe000f
:10062000869fbe003200f8003400f8001000200061
:10063000a001880000202000900188000000fa003e
:1006400000c8bf000004e00010003a002104800050
:1006500000802000008060000000e0000d003a00f3
:1006600061178000000220000080600000f0a700f9
:100670000000ea000000e9004f00de0000407800c2
:10068000a20f07008bc0a900030037000000000084
:1006900001003700000000000080fa003400f9007b
:1006a0003200f9004f03be004f02be004f01be00f2
:1006b0004f00be003600f900004006003600f8008a
:1006c000809fbe00829fbe00849fbe00869fbe00aa
:1006d000881f78003200f8003400f8001000200075
:1006e000a001880000202000900188001200fa007c
:1006f0000040eb00004f78000000eb00100798006e
:100700000040eb0040479800080037004e40900042
:100710000080fb00000047008040eb006140980033
:100720004e4090000040e800404798004e40900046
:10073000e84f5000f5ff36000040eb0040479800be
:1007400021003700000000001011800061006000ef
:100750000000e00007003a001e0090000000e800e2
:10076000100798009e009000f0702200808f5000cb
:10077000f5ff360010118000610060000000e0000d
:10078000070032004e4090000080fb0031118000d5
:100790008140780000004700614098000500370064
:1007a0004e4090000080fb00000047008040eb00be
:1007b000614098000000eb00100798004e40900048
:1007c0000040e800404798004e409000e84f50003d
:1007d000dcff36006e409000e14f500003003a000d
:1007e00010c0b30068070700350037006e40900066
:1007f000e24f500003003a000040eb00840707007e
:100800002f0037006e409000e34f500005003a0083
:1008100012c0b30041c0b30020c0b3009e07070060
:10082000270037006e409000e44f500005003a006a
:100830001e4990008e4890007e409000ae0e07004a
:100840001f0037006e409000e54f500004003a0052
:100850008e4890007e409000fa070700180037008d
:100860006e409000e64f500005003a001e4990008f
:100870008e4890007e4090002d0807001000370041
:100880006e409000e74f500004003a0011c0b300e2
:1008900010c0b3009b080700090037006e409000ad
:1008a000e84f500002003a001d090700040037001d
:1008b0006e409000e94f500001003a00a106070089
:1008c000ee40900030c8b30080cf500002003200ec
:1008d00010c0b300004f78005e4890001057980099
:1008e0006e489000005798000e0c9000660047007c
:1008f000720020000300200034090700800f54001c
:100900000200320010c0b300004f78001e40780093
:100910000004e0000a003a0066004700150d0700d9
:100920000004e00002003a006c0a070005003700ee
:10093000660047000080e800290a07000100370030
:10094000530a070010118000620060000000e00000
:100950000300320030118000004f78002222a900ed
:100960008560a9000080fa003400f9003200f90027
:100970004f0478004f03be004f02be004f01be007f
:100980004f00be003600f900004006000040da00cb
:100990000000fe00000005000001be001b00070073
:1009a0000470a70003f0a10003f8a30013003a00ad
:1009b0006509b10010003200090035006928e10026
:1009c0000200350001002800000005000000400082
:1009d000818048008502e900fcff3a000000060023
:1009e000f88f4200050035008100d1000080d3005f
:1009f0008502e800fcff3a00000006008000eb00e2
:100a0000000005006011b80074013700c70ade005d
:100a1000f107b200f50fb20008003200e1cf42004a
:100a2000020032000170a00024000500810f700058
:100a3000010032000408050044000500810f700029
:100a400002003a00140005008502e90000004000a1
:100a500081c04800fcff3b000170a000240005009d
:100a6000889fbe008a9fbe008c1f7800b0010700df
:100a7000b701330003866c006450e10024003200ab
:100a80006420e100270032006150e10022003200c2
:100a90006120e100210032008b854200eb07b100ac
:100aa0000134b800003ab8000804420089844a00c2
:100ab000013ab8000030b8008880400009014a00bf
:100ac000040033000000400081804800020149001a
:100ad0008b05e900c909dd008301700001003200c7
:100ae00013002000c814de004814dd004709de00b2
:100af0001200b200c808de0008847000660107001a
:100b000001f0a1000cf0a70001f0a000990137004e
:100b10006120e1009b0132000801be000200be001e
:100b2000f7ff37006150e100fcff3a009501370004
:100b3000889fbe008a9fbe0030044200b0844a00f5
:100b400030054b0090854b006000b1000898be0056
:100b50000a90be000440e10005c8e10006d0e100b3
:100b600007d8e10002003100680040001008e800ea
:100b70004f05be004f04be0000000600889fbe0067
:100b80008a9fbe003004be002005be000418540039
:100b900005985c0006185d0007985d0011002000b4
:100ba0000440e10005c8e10006d0e10007d8e100fb
:100bb000010039008000eb00108810004f05be00d6
:100bc0004f04be00000006001200fa00889fbe001d
:100bd0008a9fbe008c9fbe00e0b79f00f1b79f00c8
:100be00082bf9f0093bf9f000605be000404be00a5
:100bf0000000eb00d0b79f00c0b79f00b0b79f00c8
:100c0000a0b79f0090b79f000006eb005fb1970070
:100c1000cfb09700820141003fb097000200e00092
:100c200004003d00370007007e805700c0ff07002a
:100c300003003700330007007e805700cfff070016
:100c4000dfb697000d00e0000c0035006fb2970092
:100c5000ffb297000fbb97009fbb970010002000ca
:100c6000010020006011b800000272008182720051
:100c700002037300838373001b0007000c06e80067
:100c800001042000810f5600e0ff3a000d00e00053
:100c900004003d000802be000a03be007e8057002b
:100ca000a3ff07005fa897000000e00005003a00de
:100cb0001fb29700afb297003fb39700cfb3970032
:100cc000090007006fb09700ffb097000fb99700b9
:100cd0009fb997004f06be004f05be004f04be00ef
:100ce0000080fa0000000600010007000000060076
:100cf000a4b79f00b5b79f00c6b79f00d7b79f00a6
:100d0000000006004f09de0082817100b3b79f002a
:100d10004f01de008180400082807000a1b79f00fb
:100d20008fb097004f09de00000040000200700005
:100d300090b79f007fa897004f01de0081804000a0
:100d40008280700081b79f000d0007004f3ade00df
:100d50000000400004007000f0af9f000800070092
:100d60000402420085824a0006034b0087834b0041
:100d7000dfff07000802be000a03be0000000600f5
:100d80002fb29700bfb297004fb39700dfb3970021
:100d900000000600881f780018002000881f7800d7
:100da00089ff07008f87e9004f04780000000600e4
:100db000801feb0084ff07008f87e900000006001a
:100dc000889fbe008a9fbe00e00f5000e08f580051
:100dd000e00f5900e08f59000c003d006044b8005e
:100de0006055b8000000540081805c0002015d0085
:100df00083815d00180020001500070008003d00f9
:100e0000180007000004eb00050037000004eb00a9
:100e10000f00070002003d0012000700180020002c
:100e2000dcff07000800e000060032006022b80086
:100e30006033b8000000520081805a0002015b005c
:100e400083815b004f05be004f04be00000006001a
:100e5000e00f5200e08f5a00e00f5b00e08f5b0074
:100e6000000006006044b8006055b8000402540059
:100e700085825c0006035d0087835d00000006003c
:100e8000889fbe008a9fbe008c1f7800e00f500034
:100e9000e08f5800e00f5900e08f59000d003d0031
:100ea0006044b8006055b8000000540081805c00c8
:100eb00002015d0083815d001c0020000820e1002c
:100ec00009a8e1000ab0e1000bb8e1000d003d0007
:100ed000080037000006eb00e00f5200e08f5a00d8
:100ee000e00f5b00e08f5b0006003d006044b8004f
:100ef0006055b8000402540085825c0006035d0062
:100f000087835d00aaff07000c00e00006003200a6
:100f10006022b8006033b8000000520081805a009f
:100f200002015b0083815b004f0678004f05be0025
:100f30004f04be0000000600889fbe008a9fbe00ce
:100f40008c1f78000006eb00e00f5000e08f580087
:100f5000e00f5900e08f590007003d006044b800e1
:100f60006055b8000000540081805c0002015d0003
:100f700083815d001c002000e00f5200e08f5a00ca
:100f8000e00f5b00e08f5b0007003d006044b800ad
:100f90006055b8000402540085825c0006035d00c1
:100fa00087835d000c00a200790007000c00e000c0
:100fb000060032006022b8006033b8000000520022
:100fc00081805a0002015b0083815b004f0678003c
:100fd0004f05be004f04be0000000600889fbe0003
:100fe0008a9fbe00008270000402710004827100ba
:100ff000260032000004be000200be006011b800ee
:101000006b092000950220000182cf000a00390000
:101010000541b1000082cf00070039000541b10051
:101020000982cf00040039000541b1000882cf00d9
:10103000010039000541b1000542520012003200a2
:101040000a003b0082817100610164008100d100cf
:101050000080d3008984d3000884d3008b05e80086
:101060000442e800f7ff3a00070037000804440094
:1010700089844c0000004800818048008b05e9000d
:101080000442e900f9ff3a00030007004f05be00e3
:101090004f04be0000000600810020006180550062
:1010a0000b003d000b00200061fe2f000100e1005d
:1010b0001d00340082817100610164008904d10047
:1010c0000884d3000000e800faff3a007100200015
:1010d000610064000300700002006000090032003b
:1010e00061044400e0844c000988a500050032003a
:1010f0008b05e8006808e10002003a008904d1008d
:101100000884d300f20f20000258e10005003d00e2
:10111000c75ddd00f907b20089807500080078001e
:10112000000006000bf827008b0078000000050087
:101130000004be0035fe07000003be000405be002b
:101140000200be0031fe0700844f7500000006005b
:101150000200be006450e100050036006420e1009a
:10116000020036000968a30001003a000800be0032
:101170000160a0004f0678004f05be004f04be007e
:1011800000000600f0ff2f00f1ff2700f9ff3700f5
:10119000889fbe008a9fbe008c9fbe000404b800da
:1011a0000506b8008904460060854e000606b800b2
:1011b0000a054600e0854e000706b8008b0546008c
:1011c000040eb800890446000a854e00e0854d00f3
:1011d000050eb8000a0546008b854e00060eb800c5
:1011e0008b0546000416b8000a0546008b854e00a4
:1011f0000516b8008b054600041eb8008b05460096
:101200000800be000a01be004f06be004f05be002a
:101210004f04be0000000600881f7800020478001a
:1012200008017800c4000700080040004f0478005f
:10123000000006000000fa00881f78000004780013
:10124000ea8157003fb9970088007800c0902000dd
:10125000070007000000e000020035008040eb00be
:10126000017478004f0478000080fa000000060046
:101270006200fa00889fbe008a1f7800000578008f
:1012800081047800020478008300780080f92f0040
:101290000f004000770107009a979f00a9979f00d1
:1012a0000000eb00b09f9f001885fb008a04fb0044
:1012b0000a05ea004f55de0050022000808f5400de
:1012c0000d003200e10f55000b003a000a017800d2
:1012d000880078002f9097009f91970003000100ed
:1012e000a0979f000000e0008e0032003f9897001a
:1012f0000000e800b09f9f000a0444005002200054
:10130000808f5400040032000900e000e6ff3a003c
:101310003f989700840037000000eb00909f9f00eb
:10132000809f9f00f0979f00e0979f00d0979f00bd
:10133000c0979f0007003700818320000100500004
:1013400000004000c182200061007800df98970013
:1013500001007000d09f9f00880478000904780085
:10136000384578008a00fb00808320007900070060
:101370000000e000f0ff3a00a1c2b300814f550029
:101380000e003a00cf8897000180e900c08f9f00cf
:1013900010007800c09f9f000000e00005003d00a5
:1013a0000000ea00c09f9f005f9897000020a00007
:1013b000d09f9f000904e8000f003700c09f9f00e6
:1013c0000000eb0005003700f2ff2700820f5000fd
:1013d000020032006a01b90002804000090478006e
:1013e00088047800b900fb000103b100e98f5000c8
:1013f000f5ff3600c09f9f00e0c2b300984f100079
:10140000020032000080eb0019003700a0c2b300d8
:10141000d84f100007003a00cf8897000180e900fc
:10142000c08f9f0010007800a09f9f000804e80074
:10143000100037000000eb00a09f9f00880078009c
:1014400005003700f3ff2700830f50000200320031
:101450006a02b900040041000104780088007800a5
:101460003101fb000203b100e90f5100f5ff360026
:10147000a09f9f00984478008900fb0040822000d4
:10148000340007000000e000020032000804e80019
:10149000010037008044eb00c97f9f0080c6b30085
:1014a00080cf540004003a0098cf14000a003a009c
:1014b0006640500006003700c0c6b30080cf54001d
:1014c00005003a0098cf140003003a006540400040
:1014d000c07f9f000804e8001801fb00e3fb2f0019
:1014e0008f81410081f92f008f804000a0f92f00eb
:1014f0000f004000e10007000000e00009003a0092
:10150000e1fb2f008f804000a0f92f000f0040006a
:101510001c0007000000e000020035000804e8009d
:1015200061ff37000080eb004f0578004f04be00dc
:101530000080fa00000006008001780002003700f9
:10154000b15978000201e9000200e000fcff3a0016
:1015500000000600020037000304e000060032002d
:101560000001780002007800b041780081cf51007e
:10157000f9ff3a00010037000001eb00020078009b
:10158000000006000400fa00889fbe008a9fbe008b
:101590008c1f78000004780001067800f80d900098
:1015a00078009000808555000808900080855500df
:1015b0001808900080855500280890008085550007
:1015c00038089000808555004808900080855500b7
:1015d0000002220090bf9f0000032300a0bf9f00d5
:1015e000081090000028a30015003a000b00e0004e
:1015f000130034000b0578008a047800e20f5500d0
:101600000100360029002000c8019000090178007f
:10161000ee8057005800900003000100500498002d
:101620000000e0008c0032006808900009004000d3
:10163000600c9800090555004240a900eeff3c00ef
:10164000780190000200e0000c003400c801900016
:101650008c007800580090000300010050049800ae
:101660008080eb000000e0007c003200e808900081
:101670007800900000804000600c9800880c90007a
:101680000900e0001100340009057800e28f5400e1
:10169000010036002a002000c80190000a017800ed
:1016a000ec8057005800900003000100500498009f
:1016b0000000e00068003200680890000a00400066
:1016c000600c98008a845400edff370018099000e0
:1016d0000200e0000c003400c8019000e800900017
:1016e0005800900003000100500498008080eb0037
:1016f0000000e00059003200e8089000180890004f
:1017000000804000600c9800a80c90000900e000e8
:101710001100340009057800e28f54000100360002
:101720002a002000c80190000a017800ec805700d0
:101730005800900003000100500498000000e000f1
:1017400045003200680890000a004000600c9800d4
:101750008a845400edff3700380990000200e00051
:101760000e003400e80090001808900080804000cf
:10177000c801900058009000030001005004980038
:101780008080eb000000e00034003200e8089000a8
:101790003808900000804000600c9800c80c900051
:1017a0000900e0001100340009057800e28f5400c0
:1017b000010036002a002000c80190000a017800cc
:1017c000ec8057005800900003000100500498007e
:1017d0000000e00020003200680890000a0040008d
:1017e000600c98008a845400edff370008109000c8
:1017f0008000eb000028a300180032000b00e0007e
:10180000160034008b04780009057800e28f54003c
:10181000010036002a002000c80190000a0178006b
:10182000ee8057005800900003000100500498001b
:101830000000e00008003200680890000a00400044
:10184000600c98008a8454004240a900eeff3c00de
:101850008000eb00010037008080eb000100780081
:101860004f0678004f05be004f04be000080fa000e
:10187000000006000108780000000600889fbe00f6
:101880008a9fbe00e4c6b300844f5100be00320000
:1018900010003c006b425200844f5100180032008f
:1018a00005003c0054c2b300844f5100f6003200e2
:1018b00084c5b3000f00370044c6b300844f510005
:1018c0001400320065424200844f5100f1003a009a
:1018d0001000370004c7b300844f5100dd00320010
:1018e0005600350065424200844f510053003200db
:1018f00063424200844f5100e6003a004f00370037
:101900001181e90082087800f0009000124178000f
:10191000de00370020629000c5c6b300854f52003c
:1019200007003a009102780064825200840878002f
:101930001402be004fabde008603780014003700af
:1019400015c7b300854f520003003a001104780018
:101950006802540005003700a5c6b300854f520049
:1019600006003a00910478006882540084087800e8
:101970005403be004402be00050037001182e90096
:101980008408780014027800cfa2de00612bb90031
:101990000498be000690be00a060900088c6b30008
:1019a00088cf50000d00320028c6b30088cf500009
:1019b00004003a000402fb00cfa2de00612bb90054
:1019c0000800370048c7b30088cf5000030032003a
:1019d0006644440088cf500004003a00cfa2de00e5
:1019e000612bb9000498be000690be003002be0014
:1019f0002003be00f0009000e00f5200e08f5a007c
:101a0000e00f5b00e08f5b0002003d00d4c2b3003a
:101a100008003700001290000418a30002003200f2
:101a2000b4c2b300030037000408a3005100320021
:101a300004c2b30084f178004c00370020629000ab
:101a4000c5c6b300854f520008003a001105780062
:101a500064025500840878001404be006055b80084
:101a60000802be000a03be001400370015c7b30009
:101a7000854f520003003a009104780068825400b8
:101a800005003700a5c6b300854f520006003a0096
:101a90001105780068025500840878005403be00e0
:101aa0004402be00050037001182e9008408780076
:101ab000140278008002eb006033b8000498be0086
:101ac0000690be00a060900088c6b30088cf50008a
:101ad0000d00320028c6b30088cf500004003a0041
:101ae0000482fb008002eb006033b800080037007e
:101af00048c7b30088cf500003003200664444005a
:101b000088cf500004003a008002eb006033b80038
:101b10000498be000690be00801090000138a3001b
:101b2000140032003002be002003be00e00f52005d
:101b3000e08f5a00e00f5b00e08f5b000d00320089
:101b400081c7b300814f51000300320081c5b3004b
:101b5000814f510007003a00f000900004c3b30029
:101b600084f178008100e80082f178008100e800cb
:101b700071009800f000900081814100630098009e
:101b8000824078003e003700a0619000c4c6b300d8
:101b90001181e90084cf5100220032000a003c008c
:101ba0006442520084cf51002500320004c2e80094
:101bb00084cf5100130032006842520084cf51009c
:101bc0001e003a000a00370044c7b30084cf51001a
:101bd0001b0032006642420084cf510018003200e0
:101be0006942520084cf510014003a0005003700ca
:101bf0008208780092007800405890008048780071
:101c00002c0037008208780092007800600a90006b
:101c1000cfa2de00612bb9008498be008690be0082
:101c20002400370082087800920078006009900054
:101c3000cf91de008288be001e0037001181e900ce
:101c40008208780092007800600890008008780090
:101c5000180037001181e90082087800120278002c
:101c6000cfa2de00612bb9000498be000690be0032
:101c7000f0009000818141006300980081c7b300ab
:101c8000100007000b003700f000900082f1780090
:101c900006003700f0009000818141000204e0005e
:101ca00001003a0052c2b300824978008100e80086
:101cb000710098000000eb004f05be004f04be000d
:101cc00000000600fc874700889fbe008a9fbe0078
:101cd0008c9fbe008e1f78000006780080c5b30080
:101ce00080cf50000a0032007740400080cf500083
:101cf0000a0032006940400080cf50000b003200e3
:101d00003081200080bf9f00ae0020000a00370015
:101d10002280200082bf9f00060037003381200010
:101d200083bf9f008e002000030037003481200015
:101d300084bf9f000e0120003c02be002c03be00a9
:101d40000605be000404be0040c6b30080cf5000ac
:101d5000030032006540400080cf50000b003a0085
:101d6000e00f5200e08f5a00e00f5b00e08f5b0055
:101d700006003d006000b8006011b8000404500087
:101d8000858458000605590087855900e80f5700db
:101d90000400320040002000f00f570038003a00e5
:101da0000100370030002000e00f5400e08f5c009d
:101db000e00f5d00e08f5d0004003a00dc08900059
:101dc0008d0120000100e000060032008e00e900d5
:101dd000888060008fba9700e5c07800f1ef9f001f
:101de0007d012000800078008100e90005003300bb
:101df0008b05d1000a85d3008984d3000884d300e1
:101e0000f9ff3700089ebe000a96be001200370098
:101e10008d06e9008e00e900848060000fb997000c
:101e2000e2c1780082fd2f000f01410003f17e0026
:101e3000800078008100e900050033008783d1002d
:101e40000683d3008582d3000482d300f9ff3700d4
:101e5000049ebe000696be003c02be002c03be00df
:101e6000e00f5200e08f5a00e00f5b00e08f5b0054
:101e70008b0034000d00e000e5ff3c0088003700d7
:101e80002c60900081c6b300814f50000b003200df
:101e900006003c000004e00008003200e6c05000ec
:101ea000814f50004e003a0004003700c1c6b30015
:101eb000814f50004a003a00210037000800e0003e
:101ec00004003a005c0890008d0120000000e00052
:101ed00006003200110009000e84d8000fb99700e7
:101ee000e2c07800f1ef9f007d01200011000900a1
:101ef0000e84d8000a003700110009000e04d80033
:101f00008d06e9000e81b900020454008fb89700d5
:101f100061417c0081fd2f008f80400082f07e00b7
:101f2000000478000800e000020032000d00e0002c
:101f3000f1ff3c00cfc4de00614db9002500370041
:101f4000e00f5400e08f5c0004003a005c08900051
:101f50008d0120000000e000070032006171b9002f
:101f60000800be00a50007008fb99700e341780084
:101f7000f3ef9f007d0120006171b9000800be00f1
:101f80008e0007000b0037006171b9000800be0029
:101f90007b0007008d06e90000f1b900020454003f
:101fa0000fba9700e4427c0084fd2f000f0242002c
:101fb00005f27e000004be00e00f5000e08f5800e4
:101fc000020032000d00e000efff3c004fcdde00cc
:101fd0008a057800089ebe000a96be0030003700d1
:101fe000e00f5400e08f5c00e00f5d00e08f5d00cb
:101ff00004003a005c0890008d0120000000e00021
:10200000090032006172b900612bb9000800be00fe
:102010000a01be0066fb07000fba97006442780011
:10202000f4ef9f007d0120006172b900612bb900bf
:102030000800be000a01be0056fb07000d00370075
:102040006172b900612bb9000800be000a01be0030
:102050005bfb07008d06e90000f2b90004045400a0
:102060008fba970065427c0085fd2f008f82420069
:1020700084f27e00009ebe000296be003c04be00bc
:102080002c05be00e00f5400e08f5c00e00f5d0007
:10209000e08f5d00020034000d00e000e8ff3c002e
:1020a000e80f570010003a000c1090000038a30011
:1020b0000d003200f78f560006003e0085fd2f0010
:1020c0008f824200e5c07e0000c3b30080cf500085
:1020d000050032008d06e90002c3b30081fd2f0028
:1020e0008f80400082f07e0078811600120e9800ea
:1020f0006c00900083fd2f008f8141008d80410096
:102100000dfd07001c089000dc089000810f5000b6
:1021100006003d0000805000000e98000c1090005a
:102120000040a100001698000f0037000100e000f9
:102130000d003d008c109000f4806000f08f500086
:1021400009003a007c099000fc00900081005100d9
:102150000c09900082805000008050004240a9008d
:1021600001003400000e98004f0778004f06be00b3
:102170004f05be004f04be00cf01b10000000600b5
:10218000839f68000100e00002003d006000100035
:10219000e08018000300e00002003d006001110033
:1021a000e0811900050007004f00e00002003b003d
:1021b00060001000e0801800000006006022b800f7
:1021c000060220000000d0008180d2000482d200ec
:1021d0008582d2000000a0000202520083825a00d1
:1021e000030031000202420083824a000000a10085
:1021f0000603e900f3ff3a0000000600efff0700c6
:082200000400be00000006000e
:020000040000fa
:10220800202500006c7500002000000083fd000000
:0c2218000000000083ff00000000000038
:020000040000fa
:102224000000fa0023002000610420007205200051
:1022340024742000014a7800024a7800034a780096
:1022440050052000303b8800a00a2000303b880065
:1022540027a6a8002786a8002746a9002666ef001f
:1022640027e6a80023e6a80023c6a80011318000b1
:10227400f03f2c000080600000a0a0001031880016
:1022840000c0eb0022e6b7008bc0a9001106800055
:10229400f08f2f008080600000602000010070003b
:1022a400100688009bc0a80027a6a9000080fa0099
:1022b400000006000a00fa004007980010c0b300ae
:1022c4002c0507004e009000b04190004e00900095
:1022d400204190004e009000904090004e009000ed
:1022e400104078004347980052479800614798008f
:1022f4007047980064004700301f7800201778006a
:102304001e00be006011b80004402200450f2000ea
:102314006033b80007fb0700843e2000050020005e
:102324006033b8009afa07000000be008408070072
:102334000040eb000f0507000080fa0000000600d3
:102344000400fa000000eb00000f780013003700cf
:102354000000eb00100798000c0037001e009000ee
:10236400804078001e0078000040780034010700a7
:102374000004e00002003a000040eb000b003700cc
:102384001e0090000000e800100798001e00900056
:10239400e40f5000f1ff34001e0fe8001e00780027
:1023a400e40f5000eaff340010c0b3000080fa00cc
:1023b400000006000200fa00000f780010c0b3000d
:1023c400700007000004e00002003a000040eb0047
:1023d4002f0037001e0078003040900012c0b30078
:1023e40041c0b300ab0007000004e00002003a0063
:1023f4000040eb002600370000202100a107200048
:102404004f0807001e007800a04090001e007800ce
:10241400304090000a0107000004e00002003a0086
:102424000040eb001a00370000802400811e2000c9
:102434004308070010c0b300740007000004e00064
:1024440002003a000040eb00110037000080240035
:10245400811e20003a0807008040eb0010c0b30042
:10246400a70107000004e00002003a000040eb006e
:102474000700370010c0b300420007000004e0006a
:1024840002003a000040eb000100370010c0b30026
:102494000080fa00000006000200fa00000f780035
:1024a40010c0b300370007000004e00002003a0047
:1024b4000040eb00310037001e00780030409000ef
:1024c40012c0b30041c0b300720007000004e00072
:1024d40002003a000040eb002800370000202100f1
:1024e400a1072000160807001e0078001041900084
:1024f4001e007800a04090001e007800304090003c
:102504000a0107000004e00002003a000040eb006a
:102514001a00370000802400811e200008080700ec
:1025240010c0b300390007000004e00002003a00c4
:102534000040eb001100370000802400811e2000c1
:10254400ff0707008040eb0010c0b3006c010700d8
:102554000004e00002003a000040eb0007003700ee
:1025640010c0b300070007000004e00002003a00b6
:102574000040eb000100370010c0b3000080fa00f7
:10258400000006000600fa004047980000532700a8
:10259400100798000000eb00000f7800ce40900078
:1025a4000000eb008e0407000300370000e823005e
:1025b40001002000e207070010002000aa05070020
:1025c4000004e00005003a001e0fe8001e00900021
:1025d4009e007800808f5000f4ff3900ce409000b8
:1025e400200020007e0407001e0090009e0078005a
:1025f400808f5000020039000040eb0001003700da
:1026040010c0b3000080fa00000006000600fa00c3
:102614004047980000532700100798000000eb0083
:10262400000f7800ce409000100020006c040700da
:102634000300370000e8230001002000c007070062
:1026440020002000880507000004e00005003a008f
:102654001e0fe8001e0090009e007800808f50003e
:10266400f4ff3900ce409000200020005c040700f5
:102674001e0090009e007800808f500002003900f8
:102684000040eb000100370010c0b3000080fa00e6
:10269400000006000c00fa00004f9800114f98004b
:1026a400224f98008e4890001e48900080cf500022
:1026b40002003a0010c0b3005f0037000053270047
:1026c400200798000000eb00000f780080bb20007a
:1026d400300798000000eb0010079800ae48900007
:1026e400100020003e0407000300370000e8230028
:1026f40001002000920707000000eb005a050700c4
:102704000004e000070032001e0090000000e80012
:10271400100798009e0090003e009000808f5000ab
:10272400f2ff39000000eb00100798002700370083
:1027340000e8230001002000810707000000eb00ef
:10274400490507000004e0001c0032001e48900008
:102754000040e900104f98009e4890000e489000f9
:1027640080cf50000f0036000300370000e823003c
:1027740001002000720707000000eb003a05070083
:102784000004e000070032001e0090000000e80092
:10279400100798009e0090003e009000808f50002b
:1027a400f2ff39009e0090003e009000808f5000a0
:1027b40010003e000000eb00100798002e0090006f
:1027c4009e007800808f50000c003e009e489000d0
:1027d4000e48900080cf5000090036001e0fe8001c
:1027e4002e0090009e007800808f5000d0ff3900aa
:1027f4000300370000000000010037000000000063
:10280400ae48900020002000f50307002e00900041
:102814009e007800808f5000040031009e009000dc
:102824003e009000808f5000020039000040eb0011
:102834000100370010c0b3000080fa000000060059
:102844000600fa00404798005147980010c0b300b2
:102854002d07070011c0b3005e4090002504070057
:1028640011c0b3004e409000d602070011c0b3005f
:102874005e409000440307000300370000e8230093
:10288400010020002e0707004e409000930407002b
:10289400e14f5000f9ff3200007122001007980048
:1028a4000000eb00000f78000300370000e823006d
:1028b40001002000220707004e4090008704070013
:1028c4000004e00005003a001e0fe8001e0090001e
:1028d4009e007800808f5000f4ff39008040eb00a8
:1028e40000c0eb00280307008040eb0000c0eb00b1
:1028f400b40207008040eb0000c0eb00fd030700ba
:102904000040eb00000707001e0090009e007800c6
:10291400808f5000020039000040eb0001003700b6
:1029240010c0b3000080fa00000006000c00fa009a
:10293400004f9800114f9800224f980010c0b30028
:10294400f106070011c0b3001e489000e903070018
:1029540011c0b3002e489000e603070011c0b30075
:102964000e4890009702070011c0b3001e48900063
:102974000503070011c0b3002e48900002030700ae
:102984000300370000e8230001002000ec060700e4
:102994000e48900051040700e14f5000f9ff320047
:1029a4008040eb0000c0eb00d20307000040eb00c6
:1029b400004f78000040eb00104798000040eb0007
:1029c4002047980000712200300798000000eb00b7
:1029d400200798002c00370011c0b3001e48900057
:1029e400c40307000064200001002000d40607008f
:1029f4000e48900039040700e14f500005003a00ea
:102a04008040eb001e489000df02070010c0b300b6
:102a1400104798008040eb001e489000b503070063
:102a240011c0b3002e489000b203070000642000d8
:102a340001002000c20607000e489000270407008a
:102a4400e14f500005003a008040eb002e48900012
:102a5400cd02070010c0b300204798008040eb006f
:102a64002e489000a30307001e4090000004e000dd
:102a7400050032002e4090000004e0000200320005
:102a840010c0b300004f78001e4078000004e0003e
:102a940007003a002e0090000000e800200798008c
:102aa400ae0090003e009000808f5000caff3900b5
:102ab4008040eb0000c0eb008e0307008040eb0079
:102ac40000c0eb00b00207008040eb0000c0eb0048
:102ad4003c0207000040eb008b060700ae009000ac
:102ae4003e009000808f5000020039000040eb004f
:102af4000100370010c0b3000080fa000000060097
:102b04000e00fa00404f9800514f980000712200c7
:102b1400300798000000eb00000f7800803e200092
:102b2400400798000000eb00100798000040eb00fd
:102b34004047980010c0b300204f9800ce48900042
:102b44000000eb00260307000300370000e8230021
:102b5400010020007a0607000000eb004204070091
:102b64000004e000070032001e0090000000e800ae
:102b7400100798009e0090004e009000808f500037
:102b8400f2ff39000000eb00100798002d00370019
:102b940000e8230001002000690607000000eb00a4
:102ba400310407000004e0001e0032004e40900093
:102bb4000040e8004047980007003700100020005c
:102bc400290407000004e0000f003a0000e8230095
:102bd400010020005a0607000000eb002204070051
:102be4000004e000090032001e0090000000e8002c
:102bf400100798009e0090004e009000808f5000b7
:102c0400eeff390001003700000000009e00900034
:102c14004e009000808f500014003e000000eb0036
:102c240010079800100020000f0407000004e000c3
:102c340010003a003e0090009e007800808f500003
:102c44000e003e00ce4090002e48900080cf5000f1
:102c54000b0031001e0fe8003e0090009e0078003b
:102c6400808f5000caff39000500370000000000c3
:102c740003003700000000000100370000000000de
:102c84005e4890000004e00003003200ce4890004b
:102c940020002000d20207000000eb00300798005b
:102ca40010c0b300c00207000300370000e823008f
:102cb4000100200022060700d7030700e14f50005f
:102cc40005003a001e0fe8003e0090009e007800c8
:102cd400808f5000f5ff39000040eb00b20207007e
:102ce40010c0b30000e8b7003e0090009e007800da
:102cf400808f5000040031009e0090004e00900030
:102d0400808f5000020039000040eb0001003700c2
:102d140010c0b3000080fa00000006000400fa00ae
:102d240010c0b300f805070000f421001007980054
:102d34000000eb00000f78000300370000e82300d8
:102d440001002000fe0507001e0fe8001e00900091
:102d54009e007800808f5000f8ff3900b803070008
:102d64000004e0000b003200007d200010079800f2
:102d74000300370000e8230001002000f0050700ed
:102d84001e0fe8001e0090009e007800808f500007
:102d9400f8ff390010c0b3008302070000202100af
:102da400a1072000e60507000040eb007e020700b3
:102db4000068ef000040eb00d305070010c0b3002b
:102dc4000080fa00000006001000fa005007980086
:102dd4006207980073079800f0ff2f00010020009d
:102de40030079800410798006e009000fe009000a4
:102df400e00f5000e08f580002003a003e009000bf
:102e04004c0037000040eb00004f78005e0090005b
:102e1400104078000080fb004800dd008000eb00db
:102e240010079800210798005e0090000000e80059
:102e340050079800300037003e019000ce0190000a
:102e44001e009000ae0090000001690081816900bd
:102e5400000028000100200002027800030178002d
:102e64008001780001007800030262000000610024
:102e74008000eb00c000dd00000020000001be0067
:102e84006120b8000001710081817100e00f5100e0
:102e9400e08f59000b0032003e009000ce009000fd
:102ea400000140008181480010022100010020003f
:102eb400000069008180690030079800410798008c
:102ec400060037003e009000ce0090000000400055
:102ed4008180480030079800410798001e4fe800a1
:102ee4001e009000ae009000000040008180480069
:102ef40010079800210798001e407800e74f500003
:102f0400cdff34006e009000fe0090006100500080
:102f1400e080580060079800710798006e009000e8
:102f2400fe009000e00f5000e08f5800b5ff3a001b
:102f34003e0090000080fa00000006000200fa0043
:102f4400e842a800e902a900e882a900ec82a800ee
:102f5400113a8000f00b2000008160006004200022
:102f6400710520002374200080497800814978008d
:102f7400824978002135800000fc2f000080600029
:102f8400e001b3002035880071368000f00f2c007a
:102f940080806000003020000100700070368800de
:102fa400103a8000000178000260a0006004200054
:102fb400710520002374200080497800814978003d
:102fc4008249780000082800001188000040290088
:102fd4001011880070062000401188003011800014
:102fe400004f78000040eb00004f78008560a90096
:102ff4008580a900410580000000270001007000c1
:10300400400588009560a8000080fa0000000600d2
:103014000400fa00100798001e00900072002000bf
:103024000300200068ff07009e009000c000980085
:103034000040eb00004f7800000000000100370062
:1030440000000000111180000010200000806000ca
:103054000000e000fbff32001e80fb009e00900099
:10306400614078000080fb00201188001e4fe800ba
:103074001e407800e84f5000f1ff36000080fa004f
:10308400000006000600fa001007980021079800c7
:103094000000eb00000f78000000eb00000f780048
:1030a4000d00370000000000111180000010200006
:1030b400008060000000e000fbff32001e0078008a
:1030c4009e00900000804000104078000080fb00cb
:1030d400201188001e0fe8002e0090009e0078004a
:1030e400808f5000efff35000080fa0000000600da
:1030f4000200fa00000f7800000000000100370011
:103104000000000011118000001020000080600009
:103114000000e000fbff32001e0078001040780041
:103124008000fb00f00f2000008060002011880068
:103134001e0fe8001e007800104078000004e00034
:10314400efff3a000080fa00000006006a00fa006f
:1031540030379800413798000e01e8003e30900067
:10316400ce309000809fbe0040102900801f780060
:10317400020078002ef80700e68757000040eb00b5
:10318400004f78000e0037001e80fb00000047004f
:10319400104090008000fb00f00f200000806000d1
:1031a400201188001e4fe80000000000111180006b
:1031b40000102000008060000000e000fbff3200ef
:1031c4001e80fb0000004700104090000004e00057
:1031d400edff3a000080fa00000006000e00fa003d
:1031e4006007980030c8b300004f780020c0b300d7
:1031f400104798006e009000e200470004000900a8
:10320400b05878005000b100720020000300200084
:103214000e007800ecfe070050079800de009000d6
:10322400410798000e00780079ff07000080fa003b
:10323400000006000e00fa006007980030c8b300d2
:10324400004f780030c0b300104798006e00900023
:10325400e200470004000900b05878005000b100b3
:1032640072002000030020000e007800d6fe070044
:1032740050079800de009000410798000e00780087
:1032840063ff07000080fa00000006000600fa0051
:10329400e110290003000900315f78004e00b100fd
:1032a40022002000030020000e007800c6fe070064
:1032b400200798005e409000204798004e40900000
:1032c40030479800410020000e0078006dff070091
:1032d4000080fa00000006000600fa00a110290090
:1032e40003000900315f78004e00b1002200200085
:1032f400030020000e007800b3fe070020079800aa
:103304005e409000204798004e409000304798005f
:10331400410020000e0078005aff07000080fa00e8
:10332400000006000000fa00d8e2a900e6e4a900c3
:10333400e802a900ea04a900e822a900f022a900f1
:10334400f002a900c0c2a900e0c4a90011c0b300e2
:1033540000c0eb001b000700d822a900d842a90036
:10336400d862a900d982a900d9a2a900d882a9004b
:10337400d8a2a900d8c2a900e6c4a9008040eb00e5
:1033840000c0eb0080000700d802a900dc02a900fd
:10339400d962a900dd62a900c082a900c0a2a90067
:1033a400d942a900d922a90011c0b30020002000ed
:1033b4000b01070039e6a9009400a9000080fa0077
:1033c400000006000400fa002047980031479800e6
:1033d4000040eb00004f78003e4090000004e00005
:1033e40002003a0010c0b300004f78002e40900055
:1033f4000080fb00e20f50002b003200e20f50006f
:1034040005003c000000e00008003200e10f50001d
:103414001600320053003700e30f50003200320030
:10342400e40f5000400032004e0037009e40780008
:1034340061c060000080fb00610060004700dd00a7
:10344400e2168000f1f72f00810061000100700096
:10345400e0168800ec02a800ec22a800f422a800e0
:10346400f402a800c4c2a80045003700dce2a800aa
:103474009e40780061c060000080fb006100600035
:1034840062178000e1ff2f008100610001007000dd
:1034940060178800ec22a800f422a800f402a80017
:1034a400c4c2a80036003700dce2a800ec02a80081
:1034b4009e40780061c060000080fb0061006000f5
:1034c4000000400062178000d1ff2f0081006100de
:1034d4000100700060178800f422a800f402a8001c
:1034e400c4c2a80026003700dce2a800ec02a80051
:1034f400ec22a8009e40780061c060000080fb00c0
:103504006100600000004000a2178000d1ff2f007e
:103514008100610001007000a0178800f402a80077
:10352400c4c2a80016003700dce2a800ec02a80020
:10353400ec22a800f422a8009e40780061c060003c
:103544000080fb0061006000a2178000e1ff2f00f3
:103554008100610001007000a0178800c4c2a800a7
:1035640007003700dce2a800ec02a800ec22a80067
:10357400f422a800f402a800c4c2a80000000000bd
:103584000080fa00000006000200fa00004f7800f4
:10359400114798001e80fb00e30f500033003200f7
:1035a400e30f500007003c00e10f50001900320007
:1035b400e10f500022003c000000e0000a0032004d
:1035c40061003700e50f50003e003200e50f500067
:1035d40031003500e60f500045003200e70f50007f
:1035e4004e003200580037001e40900061406000d9
:1035f4000080fb006100600000004000e2168000d3
:10360400d1ff2f008100610001007000e0168800e6
:10361400560037001e409000614060000080fb00af
:10362400610060004200dd00e2168000b1ff2f005f
:103634008100610001007000e01688004b00370033
:103644001e409000614060000080fb00610060004b
:103654004300dd00e216800071ff2f00810061004d
:1036640001007000e0168800400037001e40900002
:10367400614060000080fb00610060004c00dd00e0
:10368400e2168000f1ff2e0081006100010070004d
:10369400e0168800350037001e409000614060004d
:1036a4000080fb00610060004d00dd00e216800038
:1036b400f1ff2d008100610001007000e016880018
:1036c4002a0037001e409000614060000080fb002b
:1036d400610060004400dd00e2168000f1fe2f006e
:1036e4008100610001007000e01688001f003700af
:1036f4001e409000614060000080fb00610060009b
:103704004500dd00e2168000f1fd2f00810061001c
:1037140001007000e0168800140037001e4090007d
:10372400614060000080fb00610060004600dd0035
:10373400e2168000f1fb2f0081006100010070009f
:10374400e016880009003700dc22a900dc42a90049
:10375400dc62a900dd82a900dda2a900dc82a90047
:10376400dca2a900dcc2a900000000000080fa006d
:10377400000006000200fa00004f78009e40780026
:1037840061c060000080fb0061006000e216800000
:10379400e1ff2f008100610001007000e016880045
:1037a4000080fa00000006000200fa00004f7800d2
:1037b4009e40780061c060000080fb0061006000f2
:1037c4004b00dd00e2168000f17f2f0081006100d4
:1037d40001007000e01688000080fa000000060076
:1037e4000400fa00000f7800214798001e007800ba
:1037f4000000e00009003a002e4090000004e000c0
:1038040003003200dd42a800dd22a90017003700c2
:10381400c482a800c4a2a900140037001e007800c6
:10382400e10f500009003a002e4090000004e0002f
:1038340003003200dd42a900dd22a8000b0037009e
:10384400c482a900c4a2a800080037002e4090003a
:103854000004e00003003200dd42a900dd22a900db
:1038640002003700c482a900c4a2a9000080fa00a3
:10387400000006000000fa00a804a800e082a800e6
:10388400f1e2a800e0a2a800e0c2a800d022a800ab
:10389400c0e2a900e0e4a900e002a900e022a90036
:1038a400f1c2a900f182a900f1a2a900e042a90095
:1038b400e062a9008040eb0000c0eb000d000700af
:1038c400c062a800c042a800c842a800e244a900ff
:1038d400f042a800e862a800f062a800e862a8002c
:1038e40017e2a90077e2a90001e6a9000080fa0026
:1038f400000006000200fa00004f7800114798000b
:103904001e80fb00e30f500032003200e30f500032
:1039140007003c00e10f500019003200e10f500095
:1039240021003c000000e0000a0032006000370083
:10393400e50f50003d003200e50f50003000350027
:10394400e60f500044003200e70f50004d003200f3
:10395400570037001e409000614060000080fb006b
:10396400610060004700dd0022168000f1f72f009f
:1039740081006100010070002016880055003700a6
:103984001e409000614060000080fb006100600008
:1039940022178000e1ff2f00810061000100700008
:1039a400201788004b0037001e40900061406000e3
:1039b4000080fb00610060000000400022178000ce
:1039c400d1ff2f00810061000100700020178800e2
:1039d400400037001e409000614060000080fb0002
:1039e400610060004e00dd00a2178000f1ff2b0093
:1039f4008100610001007000a017880035003700c5
:103a04001e409000614060000080fb006100600087
:103a14004c00dd00a2178000f1ff2e008100610040
:103a240001007000a01788002a0037001e40900093
:103a3400614060000080fb00610060004d00dd001b
:103a4400a2178000f1ff2d008100610001007000c9
:103a5400a01788001f0037001e40900061406000de
:103a64000080fb00610060004200dd00221780003e
:103a7400b1ff2f0081006100010070002017880051
:103a8400140037001e409000614060000080fb007d
:103a9400610060004300dd002217800071ff2f00e9
:103aa40081006100010070002017880009003700c0
:103ab400c4e2a900e402a900e422a900f5c2a90015
:103ac400f582a900f5a2a900e442a900e462a900d4
:103ad400000000000080fa00000006000400fa0064
:103ae400204798000040eb00004f78002e409000e3
:103af4000080fb00e20f500021003200e20f500072
:103b040005003c000000e00008003200e10f500016
:103b1400100032003a003700e30f50002300320057
:103b2400e40f50002c0032003500370010178000dd
:103b3400700060000000e00003003a0010c0b30011
:103b4400004f7800310037000040eb00004f780050
:103b54002e003700911780000000280000806000cc
:103b64000000e00003003a0010c0b300004f7800ea
:103b7400260037000040eb00004f78002300370098
:103b84001117800000022000008060000000e000a7
:103b940003003a0010c0b300004f78001b00370048
:103ba4000040eb00004f7800180037001117800028
:103bb40000042000008060000000e00003003a00e0
:103bc40010c0b300004f7800100037000040eb0035
:103bd400004f78000d0037009016800062006000ee
:103be4000000e00003003a0010c0b300004f78006a
:103bf400060037000040eb00004f78000300370058
:103c04000040eb00004f7800000000001e407800e8
:103c14000080fa00000006000000fa0090178000ff
:103c2400640060000000e00002003a0010c0b3002d
:103c3400010037000040eb000080fa00000006009d
:103c44000000fa0050178000680060000000e000e7
:103c54000200320010c0b300010037000040eb0046
:103c64000080fa00000006000400fa001007980023
:103c74000040eb00004f78001e0090000000e000c0
:103c84000a003a0010168000680060000000e0009e
:103c940003003a0010c0b300004f78001c00370046
:103ca4000040eb00004f7800190037001e00900020
:103cb400e10f50000a003a00101680006400600012
:103cc4000000e00003003a0010c0b300004f780089
:103cd4000f0037000040eb00004f78000c00370065
:103ce4001e009000e20f500009003a0050168000b8
:103cf400640060000000e00003003a0010c0b3005c
:103d0400004f7800020037000040eb00004f7800bd
:103d14001e4078000080fa00000006000000fa004f
:103d24005117800000082000008060000000e000bf
:103d340002003a0010c0b300010037000040eb005d
:103d44000080fa00000006000000fa0090178000ce
:103d5400680060000000e00002003a0010c0b300f8
:103d6400010037000040eb000080fa00000006006c
:103d74000200fa00000f78001e00780090407800de
:103d840030c8b30080cf5000020032000040eb0086
:103d94000f0037001e00780010409000e14f5000e3
:103da40003003a001e80e8000b00070008003700fb
:103db4001e007800104090000004e00003003a0068
:103dc4001e80e80022000700010037000040eb00dd
:103dd4000080fa00000006000400fa0010079800b2
:103de4000040eb00004f78001e0090001040780067
:103df4000080fb00f00f500003003200f10f500070
:103e0400070032000c0037008dff07009e00900071
:103e1400c040980010c0b300004f7800090037007c
:103e24007dff07009e009000c040980010c0b300c2
:103e3400004f7800030037000040eb00004f78008b
:103e4400000000001e4078000080fa000000060018
:103e54000400fa00100798000040eb00004f7800bf
:103e64001e009000104078000080fb006101b90042
:103e740000fe2f00f1ff2f00020040008380480065
:103e84000202200003002000820f5000838f58009c
:103e940092003e0000600100200037002900370036
:103ea40030003700340037003a0037004000370054
:103eb4004500370089003700880037008700370045
:103ec4008600370085003700840037008300370000
:103ed4008200370081003700760037006f0037001a
:103ee4005d003700490037003d00370064003700ab
:103ef400540037004e003700780037007700370051
:103f040076003700750037007400370073003700ff
:103f140072003700710037006c0037001e009000fb
:103f2400304190001e009000a04090001e009000c0
:103f340010409000ef00070010c0b300004f78005d
:103f4400690037001e009000bafc07001e009000b4
:103f54000000e800d7f8070010c0b300004f780055
:103f6400610037001e009000b2fc0700f4f807005f
:103f7400004f78005c0037001e009000adfc070085
:103f84001e0090000000e8000af90700004f7800c6
:103f9400550037001e009000a6fc07001e0090008c
:103fa4000000e8003cf90700004f78004e0037009d
:103fb4001e0090004040900001e8b70010c0b3001c
:103fc400004f7800480037001e00900099fc07005d
:103fd40010c0b3006bf90700004f780042003700af
:103fe4001e00900093fc07001e00900020419000ea
:103ff4001e009000b04090001e00900040409000d1
:104004004afa0700004f7800370037001e0090007e
:1040140088fc07001e009000b04090001e00900035
:104024004040900006fa0700004f78002e00370049
:104034001e0090007ffc0700c1f80700004f7800c5
:10404400290037001e0090007afc070033fb0700ac
:10405400004f7800240037001e00900075fc070014
:104064001e009000b04090001e0090004040900060
:1040740012c0b30087f90700004f78001a00370018
:104084001e0090006bfc070011c0b30010c0b30009
:104094009bfa0700004f7800130037001e009000c1
:1040a40064fc070010c0b30058f90700004f780003
:1040b4000d0037001e0090005efc070010c0b30026
:1040c40030f90700004f7800070037000000fe00b9
:1040d40010c0b300004f7800030037000040eb002d
:1040e400004f7800000000001e4078000080fa00b5
:1040f400000006000600fa0000c1b300004f78007b
:104104000040eb00104798000040eb002047980067
:104114000040eb0030479800c9fe07004047980074
:104124000e0078002dfc07000080fa000000060055
:104134000600fa0010c1b300004f78000040eb0005
:10414400104798000040eb00204798000040eb0027
:1041540030479800b0fe0700404798000e007800f2
:104164001efc07000080fa00000006000000fa00b0
:10417400c8c2a900ecc4a900f0e2a900ece4a900bb
:10418400f102a900ed04a900113a8000f00b20000f
:104194000081600060042000710520002374200069
:1041a400804978008149780082497800a1368000ee
:1041b400f00f2c00808060000020210001007000be
:1041c400a0368800d136800000fc2f0000806000fb
:1041d4003001b300d036880091368000f00f2c00f7
:1041e400808060000040210001007000903688004b
:1041f400103a8000000178000260a00060042000f2
:1042040071052000237420008049780081497800da
:1042140082497800f00f2000b00c8800e0ff2000f5
:10422400a00c8800900c8000f001b300900c880072
:1042340092e1a9009381a800810c800000c02100b4
:1042440001007000800c8800810c800080ff2f002a
:10425400008060006000b300800c8800f00f200034
:10426400000d8800e0ff2000f00c8800e00c8000c6
:10427400f001b300e00c88009ce1a9009d81a80036
:10428400d10c800000c0210001007000d00c880017
:10429400d10c800080ff2f00008060006000b3001c
:1042a400d00c8800f00f2000500d8800e0ff2000a3
:1042b400400d8800300d8000f001b300300d8800ff
:1042c400a6e1a900a781a800210d800000c021005b
:1042d40001007000200d8800210d800080ff2f0058
:1042e400008060006000b300200d88000080fa00a8
:1042f400000006000e00fa00204f9800314f98008d
:10430400424f98008087270001182400008fbe00c8
:104314002e4890000080fb008000eb00b8f10700fd
:104324001e01be00cdf107009af107002007980096
:104334003e4890000080fb008000eb00b0f10700d5
:104344001e01be00c5f1070092f107003007980076
:104354004e4890000080fb008000eb00a8f10700ad
:104364001e01be00bdf107008af107004007980056
:10437400f1ff20002e00900000805000b00c880057
:10438400f1ff20003e00900000805000000d8800e6
:10439400f1ff20004e00900000805000500d880076
:1043a4000080fa00000006000000fa00e024ef009c
:1043b400e224ef00e424ef00e624ef00e824ef0019
:1043c400ea24ef00ec24ef0068ff070029fd070052
:1043d400d4fb070047000700d8fa07004027ef0086
:1043e40010c0b30067f807000080fa000000060060
:1043f4000000fa00ecff070000c8bf000004e00062
:10440400020032004aff070044fa070001c8bf0057
:104414000004e0000100320036ff07003ffe070001
:104424000004e0000200320010c0b30055f8070099
:1044340045fe07000004e0000200320010c0b30093
:1044440072f80700611780000002200000806000fd
:1044540000f0a7000000ea000000e9004f00de00c1
:10446400004078002800070000202100a107200058
:0844740033000700e0ff3700f0
:020000040000fa
:10447c00000800000200000080000000240800007a
:10448c001a00000082000000686a6c00747a4c000c
:10449c0000000100000200000400080000100000f1
:1044ac00000020002b2d230030000000020800002b
:1044bc00220000008200000030313200333435001d
:1044cc00363738003941420043444500460030003d
:1044dc0031323300343536003738390061626300cd
:0c44ec0064656600000000000000000095
:020000040000fa
:1044f8000000fa00e8a2a900eca2a8000080fa00d7
:10450800000006000200fa00004f78009e40780084
:1045180061c060000080fb00610060004500dd00b4
:1045280062178000f1fd2f0081006100010070001a
:0c453800601788000080fa0000000600f8
:020000040000fa
:10454400f03fb1000180b10006003500ee03090020
:1045540000000000403fb1000180b100fbff3d00be
:104564001000b000203fb0000200350000800900b8
:08457400000000000000060039
:020000040000fa
:020000040005f5
:0457f400fffd0000b5
:020000040000fa
:020000040005f5
:0457f8002ebb0000c4
:020000040000fa
:020000040005f5
:0457fc007f3f0000eb
:00000001FF
